:020000041000EA
:1000000000B5324B212058609868022188439860DF
:10001000D860186158612E4B002199600221596106
:100020000121F02299502B49196001219960352056
:1000300000F044F80222904214D00621196600F024
:1000400034F8196E01211966002018661A6600F04E
:100050002CF8196E196E196E052000F02FF8012189
:100060000842F9D1002199601B49196000215960AB
:100070001A491B48016001219960EB211966A021F2
:10008000196600F012F800219960164914480160C1
:100090000121996001BC002800D000471248134993
:1000A000086003C880F30888084703B5996A0420EC
:1000B0000142FBD001200142F8D103BD02B5186610
:1000C0001866FFF7F2FF186E186E02BD00000240BE
:1000D000000000180000070000035F00212200005C
:1000E000F4000018222000A00001001008ED00E03C
:1000F00000000000000000000000000074B24E7A12
:1001000000200420F7010010C3010010C5010010F9
:10011000C1010010C1010010C1010010C101001097
:10012000C1010010C1010010C1010010C701001081
:10013000C1010010C1010010C9010010CB01001065
:10014000CD010010CD010010CD010010CD01001037
:10015000CD010010CD010010CD010010CD01001027
:10016000CD010010CD010010CD010010CD01001017
:10017000CD010010CD010010CD010010CD01001007
:10018000CD010010CD010010CD010010CD010010F7
:10019000CD010010CD010010CD010010CD010010E7
:1001A000CD010010CD010010CD010010CD010010D7
:1001B000CD010010CD010010CD010010CD010010C7
:1001C00000BE00BE00BE00BE00BE00BE00F04BF888
:1001D000103800BEF2EB887170710010947100103D
:1001E0003402001090A31AE700202149086006C8D5
:1001F00081F3088810471F48006800282FD10DA4FC
:100200000ECC002902D000F012F8F9E71A491B4A77
:10021000002000E001C19142FCD1194988471949E9
:1002200088471949884700BEFDE701C901C29A42C3
:10023000FBD3704794710010C0000020B40400206C
:10024000887500100000042000000420887500104C
:1002500000100420001004200000000070470B482C
:1002600003F064FF0047EFF30580C0B27047000061
:1002700008ED00E0000000D000060020D0160020AD
:100280002D2B0010A1050010E92A00105756000080
:1002900006005250ABB360539070001006005250ED
:1002A000861C0302A0700010060052505422A29D2A
:1002B000BC70001005005250DE65F46888750010AF
:1002C000F8B5C04610B5064C2378002B07D1054B76
:1002D000002B02D0044800E000BF0123237010BDB2
:1002E000000B00200000000010570010044B10B558
:1002F000002B03D00349044800E000BF10BDC046F6
:1003000000000000040B00201057001030B5012839
:1003100000D030BD184B9942FBD10630174B27E077
:1003200000221A705A70A521890059800121494282
:1003300099800224DC8004341C8159810231998126
:100340000F49D98100211A825A619A611977DA839B
:100350001A3419555A629A62DA621A6314340425FF
:100360001D559A6308341955C0215A50C8330138B5
:100370000028D5DACDE7C046FFFF0000C80B0020FB
:10038000FF7F000010B5C9B2104CC8235843015577
:1003900089000F4BCB58241863800023636222002E
:1003A00034321370E3880B485843FA21890003F074
:1003B00011FF0100A0620848E36AC01A03F0E2FEE0
:1003C000206320340123237010BDC046C80B0020D9
:1003D000B401002044AC0000FFFFFF0010B5C824AA
:1003E00044430B480419002363622300343303227F
:1003F0001A70A38907485843FA21890003F0EAFEDE
:100400000100A062E36A584203F0BCFE206310BD05
:10041000C80B002044AC0000F0B5C64600B50D0086
:100420001600802800D178E090283FD1002A00DC17
:1004300075E0002300E00133072B07DCC8225A4394
:100440003F49525C002AF6D13E4A13703D4B1B785F
:100450005BB2002B2DDB3B4B00201856384B9846E7
:10046000C82141435B1800225A621F00343704241C
:100470003C701A63143F3A7044460A559A6332003E
:100480002900FFF77FFF01F097FF00293ADB2D4B92
:1004900000241C5700293BD0FA229200002303F0CD
:1004A000DBFEC8235C43264B1B19986380BCB8460F
:1004B000F0BD0023012040420400844605E0A24232
:1004C00002D259B28C4614000133072B11DCC8212B
:1004D00059431B4A5218926B8242F0D20F001849BE
:1004E000C919203109780029E9D116490B7010008B
:1004F000EAE7144B1B785BB2002BACDA114B624677
:100500001A70A8E7104B114A3F21114802F0F0FA87
:10051000FA21890003F05EFEC3E7002402E0002414
:1005200000E00134072CC1DCC823634304495B5C51
:10053000AB42F6D1320029002000FFF74FFFF0E771
:10054000C80B0020B0010020105700102C570010DD
:100550006457001070B500201BE00F4CC8214143C8
:10056000631820225A70163ADA801A8101256D42EA
:100570005D819A81094A9A8000225A621D003435B1
:1005800004262E701A63143D2A700A559A635A8005
:1005900001300728E1DD70BDC80B002010270000E6
:1005A00070B501F061F81B4800F07AFAFFF7D2FF4E
:1005B00003E0194B1B78002B1ED101F06DF80025CC
:1005C000072DF6DC0021012000F08AFEC8236B43D2
:1005D000124CE418E0800121012000F081FE20810E
:1005E0000221012000F07CFE60810321012000F047
:1005F00077FEA0810135E3E7002405E000F03EF836
:100600006300074AD0520134FF2CF7DD024B002271
:100610001A70D2E744AC0000CC160020C80B0020B2
:100620008812002010B502490120FFF76FFE10BDAF
:10063000FFFF0000044A106843034340580C434046
:100640005801584010607047B403002010B5FFF700
:10065000F1FF0400FFF7EEFF02002004000C13047A
:100660001B0CC018240C0019120C80184008024BF7
:100670009C46604410BDC0460100FFFFF8B5CE4661
:10068000474680B500250023994693E00023636226
:1006900034330122E2542389A3485843FA218900C4
:1006A00003F098FD0100A06263891B02E26A981AB8
:1006B00003F068FD2063A5E0C8226A439B4B9B18AA
:1006C00000225A6219003431022008709A621A63BB
:1006D00098E09648C8216943431800225A621F00D7
:1006E000343704263E701A63143F3A700A549A63F2
:1006F00088E0FFF7ABFFC8226A438C4B9B18188237
:1007000090E0C82068438949091810268E5F0127A8
:1007100099E08749581840008649091A7618A4E0DC
:10072000834976180137FFB2110706D51B0A5B0013
:1007300081495B5EF6180137FFB2D30716D57B48B7
:10074000C8226A4382183C32117864236B435B18D9
:100750001C335B00C31806201B5EF6180131C9B2BA
:100760001170402900D18FE00137FFB2390030000D
:1007700003F008FDC117C8276F436C4BDF19FB6AF4
:100780001A0A002304F06AFB0904000C0843C1178D
:10079000BA88002304F062FB0C04000C04433B7F86
:1007A000002B00D080E0C8226A43604B9B189C61FC
:1007B000A1440135072D00DD9AE0C8246C435B4B52
:1007C000E41863885D4A1088584340120004564973
:1007D00003F000FD63699C4660446061230034338C
:1007E00019780429E5D0626AA36A9A420AD30229D9
:1007F00008D0012900D15FE7032900D169E700296A
:1008000000D143E7C8226A43484B9B18DA6A196B48
:100810008C466244DA625A6A01325A625B69DB03CF
:1008200000D566E7C8236B43404AD21853691B04BE
:100830001B0C53615278002ABBD051B2002900DA58
:100840005FE700260027910604D539495918761824
:100850000137FFB2D1060AD539498B4200D958E792
:10086000590033488446614476180137FFB2510677
:1008700000D459E7C82068432C490918C9898B421C
:1008800000D34DE72B494CE7C8226A43274B9B18FE
:100890001A003C3200211170C4331B68002B00D1B8
:1008A00062E7200098475FE7C8276F431F4BDF19B7
:1008B000F88B04F01FFB234904F00DFB04F076FBDA
:1008C000011CFE20800504F0E6FA8046B869201A73
:1008D00004F010FB414604F0FEFA071C200004F06F
:1008E00009FB391C04F0DCFA04F026FB04005AE78B
:1008F0004B46D917144B1A880023484604F0AEFA29
:10090000030008041B0C1843094B984205DB8023A5
:100910001B02984202DB074800E00C4800B2C0BC52
:10092000B946B046F8BDC04644AC0000C80B002034
:100930000180FFFFFF7F0000B0570010BC160020B1
:10094000FE7F0000926595B9B80300200080FFFF8C
:1009500070B5224B0C2834D8214C2340C4022343C9
:100960000C25AB43082423431E4C23401E4E33402A
:100970001E4E3340012633431D4E33400226B343FF
:10098000AB43083D2B430C352B4323409024A4005C
:100990002343184C1C40EC235B0323430C2916D83B
:1009A0000F4C2340C9020B438001A021C9058C468E
:1009B00060440260104A42608022520082600361FB
:1009C00070BD0E4B0E4AC4210E4802F091F80B4B3D
:1009D0000B4AC4210B4802F08BF8C04610801F0060
:1009E000FF87FFFF3FF8FFFFFFFFBFFFFFFFDFFFB6
:1009F000FFFF7FFFFF7FE0FF08000440B0590010B9
:100A0000D05900100C5A001070B5012004F0F2FD0E
:100A10001C4D2860012004F0EDFD01001A4E3060ED
:100A20001A4A2868FFF794FF194A29683068FFF7C7
:100A30008FFF18490B2000F0A7FF012423002A682C
:100A400093403268210091400B43134A1360012107
:100A50000B2000F089FF002004F0DCFD0F4B18682C
:100A600004F09CFA83B2802040021843A023DB05E7
:100A70008422D20098502A6894408622D2009C504A
:100A800070BDC0461C0B0020200B0020000600207B
:100A900000080020550B0010042400502C0B0020EF
:100AA00070B50400144D1549280004F06FFD2B6843
:100AB0000F225A40CF231340802040012843036077
:100AC00001210B2000F006FE01210A2000F002FEA9
:100AD0000121092000F0FEFD052002F0BDF9084BC0
:100AE0001860210003F076FB04F0FEF9054B186056
:100AF000FFF78AFF70BDC0460000044080A81201C5
:100B0000240B00202C0B002030B5050000220CE047
:100B10000C4C51000B5B1B090B480380E020C0010B
:100B200003436B5200230B530132FF2AF0DD074AC7
:100B3000136801331360FF210B401360044B012243
:100B40001A7030BD88120020B8160020280B002033
:100B5000CC16002010B5A022D2058023DB00D2588D
:100B6000114B196801238B4013420BD1A022D205EF
:100B70008023DB00D2580D4B196801238B401342B0
:100B800009D110BDA021C905094A8B501921094876
:100B9000FFF7BAFFEAE7A021C905054A8B501921E2
:100BA0000548FFF7B1FFECE71C0B0020200B0020ED
:100BB0000C04000000060020000800204000014B4B
:100BC000C05A70470C5B0010D0231B0680225203D2
:100BD0009A6100230BE0D02212068021C9029161A4
:100BE000D022120680210903516191610133072B44
:100BF00009DC02001A41D207EDD5D022120680216D
:100C0000C9025161ECE7D0231B06802252035A61CE
:100C10007047000010B507231B1A012098400300FD
:100C2000034A10785840C0B21070FFF7CDFF10BDD6
:100C3000E003002010B5034B00221A700020FFF7DC
:100C4000C3FF10BDE003002010B5122000F08CFDA2
:100C5000132000F089FD142000F086FDD0231B0630
:100C60008022D2025A62802212035A6280225203E8
:100C70005A62FFF7DFFF10BD10B50400042100F039
:100C800029FD620807231A4093009B189B000D4919
:100C90008C466344E10712D50B481968084080214F
:100CA00049010B43186093009B189B00074A944628
:100CB00063441868012282430B431A6010BD044844
:100CC000EBE7C0460C0005400000FFFF00000540B8
:100CD000FFFF0000074B1A680C2319009143064AD6
:100CE0001160064A126804214A401340044A136006
:100CF0007047C0463C0005403C1005405000054090
:100D000050100540084A135C01214B40DBB21354DC
:100D100001228240002B03D0D0231B065A6170476A
:100D2000D0231B069A61FAE7B00B002010B51920FA
:100D300000F01AFDD024240680239B046362152052
:100D400000F012FD80239B036362162000F00CFD6F
:100D50008023DB0363620620FFF78EFF0720FFF787
:100D60008BFF0820FFF788FFFFF7B4FFFFF76CFF4A
:100D700010BD000010B50E4B01241C70000280B2A3
:100D80000C4C236858400004000C0B4B18600906FB
:100D900020684140090C09041960120292B2074B05
:100DA0001B685A401204120C054B1A6010BDC04655
:100DB000C816002048000540481005405C0005406A
:100DC0005C10054010B5072808D88000194B1B5847
:100DD0009F4600220021FF20FFF7CCFF10BDB52267
:100DE00000214A20FFF7C6FFF8E723220021FF2059
:100DF000FFF7C0FFF2E7962273210020FFF7BAFF4A
:100E0000ECE7FF2200210A20FFF7B4FFE6E700220B
:100E10002721FF20FFF7AEFFE0E70022FF210F2090
:100E2000FFF7A8FFDAE75A226421FF20FFF7A2FFAD
:100E3000D4E7C046605A001010B50020FFF7C2FF8B
:100E400010BDF0B5C64600B50C2000F08DFC0D209D
:100E500000F08AFC0E2000F087FC0F2000F084FCDC
:100E6000D024240680235B01984663628027BF015B
:100E700067628026F601666280252D026562802306
:100E80005B02A36200220121102000F03BFC8023C2
:100E90009B02A36200220121112000F033FC434693
:100EA000636167616661656180BCB846F0BD000042
:100EB000F0B5974B1B789B00964A00219950D023A0
:100EC0001B06802252019A61802292019A6180223F
:100ED000D2019A61802212029A61002362E0D0223C
:100EE000120680214901916180E0D0221206802102
:100EF000890191619BE0D02212068021C901916194
:100F0000B6E0D0221206802109029161C046C04697
:100F1000C046C046C046C046C046C046C046C046A1
:100F2000C046C046C046C046C046C046C046C04691
:100F3000C046C046C046C046C046C046C046D02691
:100F400036067268120C01210A409A40704D2C78C6
:100F50007048A40027583A432250C046C046C046B5
:100F6000C046C046C046C046C046C046C046C04651
:100F7000C046C046C046C046C046C046C046C04641
:100F8000C046C046C046C046C046C0467268520C05
:100F900011401A00103291402A78920014582143CF
:100FA000115001330F2B00DD84E0C046C046C0461F
:100FB000C046C046C046C046C046C046C046C04601
:100FC000C046C046C046C046C046C046C046C046F1
:100FD000C046C046C046C046C046C046DA0700D438
:100FE0007DE7D0221206802149015161C046C046EA
:100FF000C046C046C046C046C046C046C046C046C1
:10100000C046C046C046C046C046C046C046C046B0
:10101000C046C046C046C046C046C046C0469A0705
:1010200000D462E7D0221206802189015161C046B6
:10103000C046C046C046C046C046C046C046C04680
:10104000C046C046C046C046C046C046C046C04670
:10105000C046C046C046C046C046C046C046C04660
:101060005A0700D447E7D02212068021C9015161F6
:10107000C046C046C046C046C046C046C046C04640
:10108000C046C046C046C046C046C046C046C04630
:10109000C046C046C046C046C046C046C046C04620
:1010A000C0461A0700D42CE7D0221206802109027C
:1010B00051612BE716490B78164A9C000120A55870
:1010C0002843A0500133DBB20B70072003400B70A4
:1010D00013685268934200D0F0BD0E4A9268934262
:1010E000FAD10C4AD2689342F6D10A4A1269934265
:1010F000F2D1084A52699342EED1064A926993426C
:10110000EAD1044AD2699342E6D10022110004E0F8
:10111000CA160020BC03002001321F2A08DC01206F
:1011200090401842F8D080200006D0400143F3E7F9
:10113000014B1960D0E7C046DC03002010B504F075
:1011400075FA1F211A2000F0C5FA002200211A208A
:1011500000F0D8FA00211A2000F0EEFA034B1B68C9
:10116000E022D2011340024A136010BD00C00440C7
:1011700000D00440C3074FD5D0231B068022520164
:101180005A6183074ED5D0231B06802292015A61F3
:1011900043074DD5D0231B068022D2015A61030795
:1011A0004CD5D0231B06802212025A61C046C0468D
:1011B000C046C046C046C046C046C046C046C046FF
:1011C000C046C046C046C046C046C046C046C046EF
:1011D000C046C046C046C046C046C046C0461A4B80
:1011E00004221A60194B1B68DB05FBD5174B5868A6
:1011F0000004800C052800D80020D0231B06802284
:1012000052019A61802292019A618022D2019A61F0
:10121000802212029A617047D0231B06802252015D
:101220009A61AEE7D0231B06802292019A61AFE754
:10123000D0231B068022D2019A61B0E7D0231B067F
:10124000802212029A61B1E700E0044000C004402D
:101250008000014B195070478C0B0020F8B5D02549
:101260002D06802636046E61084C27783800FFF77B
:1012700081FF01003800FFF7EBFFAE6123780133F7
:10128000DBB22370032213402370F8BDC91600207F
:101290008000014BC05870478C0B0020034B00228C
:1012A0001A615A6102499961DA617047480B00205E
:1012B000FF03000010B5002409E0E0B2FFF7E8FFEB
:1012C000A300054AD050054B01221A550134032CC6
:1012D000F3DDFFF7E3FF10BD380B0020340B0020D7
:1012E000800040188000014BC0587047480B002018
:1012F00010B502281DD00AD8002814D0012817D113
:10130000114B01221A700420FFF784FC10E003281F
:101310000ED10D4B03221A700520FFF77BFC06202F
:10132000FFF778FC04E0084B00221A70FFF782FCFC
:1013300010BD054B02221A700420FFF76BFC05203C
:10134000FFF768FCF4E7C046C2160020431E984130
:10135000014B18707047C046C7160020014B187823
:101360007047C046C716002010B51520FFF7CAFC0D
:10137000044A137801214B401370034803F0E2FF45
:1013800010BDC046C6160020805A001010B5064A8F
:10139000137801214B4013701620FFF7B3FC03486C
:1013A00003F0D0FF10BDC046C51600208C5A0010B7
:1013B000F8B5594B1E68594B1F68594B00221A70DB
:1013C00000240BE0611C574803F0EEFF2100303190
:1013D0007F229020FFF720F80DE001341A2C17DC53
:1013E00001223300E34015001D401A4203D13B00A7
:1013F000E340DB07E6D4002DEFD03B00E340DB0702
:10140000EBD42100303100228020FFF705F8E4E71B
:10141000330101D43B0118D4F30001D4FB001BD4E9
:10142000B30001D4BB001AD48023DB0534001C4078
:101430001E4201D17B0015D4002C01D07B002CD59D
:10144000354B1A68354B1A60F8BD0120FFF77EFF57
:10145000354803F077FFDFE7FFF786FFE0E7FFF7A8
:1014600095FFE1E700F0A8FF00290BDB10D0FA227E
:101470009200002302F0F0FE2C4B18602C4803F081
:1014800061FFD9E72B4B2C4A3F212C4801F030FB60
:10149000FA21890002F09EFEEEE700F08DFF0029A0
:1014A0001BDB20D0FA229200002302F0D5FE244B51
:1014B00018601E4B1B68C01AC8235B00984217D3E4
:1014C0001F4B1B68194A12689B1AC822520093428C
:1014D000B6D91C4803F036FFB2E7164B164A3F2137
:1014E000164801F005FBFA21890002F073FEDEE7E1
:1014F000154803F027FF154C01232370144A107878
:101500000130C0B21070063318401070FFF75AFC5B
:1015100000232370D4E7C046DC030020E40300204E
:10152000C1160020985A0010A45A0010880B002001
:10153000B05A0010105700102C57001064570010BC
:10154000300B0020D85A0010C05A0010BF160020DF
:10155000C3160020014B18787047C046C5160020FE
:1015600010B5FFF7FBFE00281BD0374B01221A7085
:10157000364B1C780134E4B21C70FFF7EBFF031EFE
:1015800000D00420002B00D10320844202D32F4B33
:1015900000221A702D4B1878FFF7AAFE0020FFF7E3
:1015A000D5FE294B1B78002B01D1002419E0264BD6
:1015B00000221A70264B1A780F2010401870FFF77F
:1015C00003FB0023032BF0DC224AFF21D15401331B
:1015D000F8E7A300204A98501E4B1B5D012B1CD03E
:1015E0000134032C2FDCE0B2FFF752FE1B4B1860D6
:1015F000164B1B789B001B199B00194A9A58821A9C
:101600000023042191425B41DBB2164A1370002B88
:10161000DFD0104B01221A55DBE706331B1B0120DC
:10162000984003000A4A10781843C0B21070FFF7C0
:10163000CBFA064B1B789B001B199B00074A1168CD
:10164000074A9950CCE710BDBE160020C0160020F6
:10165000E0030020340B0020380B0020AC0B0020EE
:10166000480B0020C416002010B503F0A9FEFFF7B8
:101670005DFBFFF7E1FBFFF7E4FBFFF75FFDFFF723
:1016800019FE034803F05EFE024B00221A6010BDF3
:10169000F05A0010E803002010B5FFF709FCFFF72F
:1016A00087FEFFF7DBFDFFF75BFF03210020FFF75D
:1016B00017FEFFF783FA054B1880054A13680133BC
:1016C0001360FF210B40136010BDC046BC16002004
:1016D000E803002010B58300084A944663441C6860
:1016E00040226240C02414408022520113431C60F7
:1016F000C000034B9C466044416010BD04C00140E3
:101700000040014080000B4B9C46604400290DD0F6
:101710000823002A0CD004221343026853400C22F1
:101720001340802252011043036070470023F0E70A
:101730000022F1E704C00140002909D08000094BD4
:101740009C46604480239B011843402303607047FC
:101750008000044B9C466044C0239B0118434023F7
:101760000360F4E704C0014010B501238340D02298
:101770001206936293610521FFF7ACFF10BD0000D4
:10178000EFF3108072B6034B1B68002BFBD0BFF346
:101790005F8F70472C0100D0BFF35F8F024B002298
:1017A0001A6080F3108870472C0100D0F8B506004D
:1017B0000C001500FFF7E4FFE308F718F15C0722BF
:1017C0002240012393400B4205D1DBB20B433B7017
:1017D000FFF7E2FFF8BD2100280001F023FAF0B581
:1017E00083B00600019114001F00FFF7C9FF00E05D
:1017F0000134BC420CD8E308F518F35C0721214002
:1018000001228A401A42F3D1D2B21A432A7001E06F
:1018100001246442FFF7C0FF002C02DB200003B06C
:10182000F0BD019B002BF9D0089801F0FBF90000F6
:10183000034B1B6802201840431E9841C0B27047FA
:1018400000C00640002307E0054A9A189200BFF343
:101850005F8F0021116001331F2BF5D97047C046FF
:1018600040000034054A1078431CDBB21370172B7C
:1018700002D9130010221A707047C046EC030020F2
:10188000074B9B68103080001950BFF35F8FBFF388
:101890005F8F044B0021196082F310887047C046A7
:1018A00000ED00E0240100D010B5091A081F0A4B12
:1018B0009C466144094A914208D8C30706D44010A7
:1018C0004005400D064B184380B210BD054B064A3B
:1018D0009921064801F00CF9FC070000FE0F0000FA
:1018E00000E0FFFF0C630010546500103C63001023
:1018F00010B5091A04394C08090B08D14905490DDE
:10190000064A11430180064B2343438010BD054B1B
:10191000054AA121054801F0EBF8C04600F0FFFFA1
:1019200000F8FFFF80630010286500103C63001082
:1019300001238340034A10681840431E9841C0B2F7
:101940007047C04600E100E0002904D0034B186056
:10195000034B18607047034B1860FBE780E200E020
:1019600000E100E080E100E010B5012383401800B1
:10197000FFF7EAFF10BD0000024B9B6810308000AB
:10198000C058704700ED00E070B504000D00EFF3A3
:10199000108672B60C4B1B68002BFBD0BFF35F8F19
:1019A0002000FFF7E9FF094B984201D0A84205D17A
:1019B000320029002000FFF763FF70BD044B054A89
:1019C0007C21054801F094F8240100D0CD010010DD
:1019D00090630010706500103C630010F0B5CE46B7
:1019E000474680B583B006000D00EFF3108872B64D
:1019F000564B1B68002BFBD0BFF35F8F544B9A688C
:101A000034001034A300D758524B9F4207D0AF4246
:101A100000D199E00197504BFB1A2F2B09D9424670
:101A200039003000FFF72CFF03B0C0BCB946B04608
:101A3000F0BD3000FFF77CFF814600213000FFF74A
:101A400093FFBFF35F8FFEF70EFC002801D08442A6
:101A500011D10123019C9C430022A368AB4212D008
:101A60000622A256002A0DDB53009B189B00220081
:101A7000394CE418F1E72C21384B394AFF31394809
:101A800001F036F82200AB4257D106256557002DEC
:101A900039DB6B005B199A002F4B9B189A68A26088
:101AA000DA79E27106229A56A2719B795BB2002B19
:101AB00010DABD200002A0806B005B199B00264A53
:101AC000D318294A11789971157049463000FFF7EB
:101AD0004BFFA4E7201D6B005B199B001E4A9B185F
:101AE0001A1D9B88D90A1C2907D15B055B15023397
:101AF00059005118FFF7D8FEDDE71C4B1C4AA721FF
:101B0000184800F0F5FF002812D1002A0ED0FF235C
:101B10009371184B9380144A1378A371164B0E4996
:101B2000641A644163431B0D1370CEE7094FF2E75B
:101B3000201D1249FFF7DCFEC7E76021104B084A61
:101B4000FF31084800F0D4FF024F68E7240100D0BD
:101B500000ED00E0CD010010F0030020A4640010AF
:101B6000406500103C630010CE1600208C6400100D
:101B70006065001000BDFFFFAAAA00002A04002033
:101B8000C864001070B50400012606432D4BF31AFB
:101B90002F2B28D8FEF767FB00282BD0EFF3108CF3
:101BA00072B6294B1B68002BFBD0BFF35F8F274D0C
:101BB00022002449521A524155432D0D6DB2244B37
:101BC0009B6880001B58B3421BD00022032A32D8E6
:101BD00053009B189B001B49CB189B795BB2AB420F
:101BE0001FD00132F2E7C2211A4B1B4A49001B48A1
:101BF00000F07EFF88211A4B174AFF31174800F08A
:101C000077FF134B9B68174A1A50174B1A78A2712B
:101C10001D70BFF35F8F0C4B00221A608CF310888D
:101C200070BD08005300991889004118FF268E7175
:101C30000E4A8A80E9E7CC210D4B074A4900074844
:101C400000F056FFF0030020240100D0AAAA0000F3
:101C500000ED00E0D06400100C6500103C63001043
:101C6000F8640010CD010010CE16002000BDFFFF6B
:101C7000046500100022044B02E0044902C3013253
:101C8000072AFAD97047C04600E400E080808080CF
:101C9000024B9C466144890001607047400000345B
:101CA00070B505000C00080000F07AFB200000F081
:101CB0004BFC0849200000F08BFBFFF7D3FD064BDF
:101CC0009C466044800068602C75A400034BE5507E
:101CD00070BDC046B51F00104000003488140020BD
:101CE00010B5002922D003681B7B99421ED8174BE0
:101CF0009C466144090183689C4661440C684968BC
:101D0000002A19D003681B7B9A4215D883680F48B4
:101D10008446624412019A18106853680200012038
:101D20008B4201D80ED00020C0B210BD084B094A2A
:101D30003B21094800F0DCFE054B064A3B210648E2
:101D400000F0D6FEA242EFD8EDE7C046FFFFFF0F3E
:101D5000DC6500108C670010A065001010B500292C
:101D60001ED0037B99421BD84B005B18033B0468D1
:101D7000A4466344002919D0002A1DD0914221D0E5
:101D8000002A25D0047BA24222D804685000801883
:101D9000033820188170197800291FD11A7010BDDE
:101DA000104B114A6821114800F0A2FE104B114A55
:101DB0006F310E4800F09CFE0F4B0E4A70210B480D
:101DC00000F096FE0D4B0B4A7121084800F090FE82
:101DD000044B054A6821054800F08AFE41701A70DC
:101DE000DDE7C04610660010E06700102C660010AA
:101DF0007C660010BC6700108866001094660010B6
:101E000070B506000D001400002914D0002A14D06B
:101E1000806873689847002806D0220029003000A7
:101E2000FFF79CFF280007E02A0021003000FFF7A1
:101E300095FF200000E0100070BD0800FCE70000E6
:101E4000F0B583B00500009201930AAB1C780BAB90
:101E50001F78002C26D003685A7B944207D10123B7
:101E6000002B19D1002C3BD1200003B0F0BD002C79
:101E70000CD01A7B944209D81A6863001B19033BE3
:101E8000D3189B78002BEBD00123E9E73E4B3F4A68
:101E900068213F4800F02CFE3E4B3F4A65213F48F9
:101EA00000F026FE03689C7B002CDBD012D01A7B4E
:101EB00094420FD862001219033A19688C466244A2
:101EC00051789973002900D1D9730023937053700E
:101ED0001370C7E72C4B2D4A68212D4800F008FEEF
:101EE000002C3AD02B681B7B9C4236D82C4BE31835
:101EF0001B01AA6894466344009A1A60019A5A60CA
:101F0000089A9A60099ADA602E68002C2BD030D09B
:101F1000337B9C422DD863001B19033B32689446E7
:101F2000634400229A705A701A70717B220030004C
:101F3000FFF766FF7073844200D095E7287D009A12
:101F4000019B00F08DFA061E01D0002F17D00C9BCC
:101F5000002B00D188E71E7086E7124B124A3B2106
:101F60000E4800F0C5FD114B114AA521084800F0AC
:101F7000BFFD054B054A6821054800F0B9FD2868FA
:101F8000210000F095FCE2E710660010E067001009
:101F90002C660010AC660010EC670010A065001005
:101FA000FFFFFF0FDC6500108C6700109C650010C0
:101FB000D0670010F0B5DE4657464E464546E0B5C0
:101FC0008BB00990002308938200B24BD65837009B
:101FD00032E0B14BB14A3F21B14800F089FDB14B2D
:101FE000B14A3B21B14800F083FDB14BB14A8C218D
:101FF000AE4800F07DFDB04BAE4A9021AB4800F0FA
:1020000077FDA84BAD4A4021A84800F071FD2A6831
:102010006B68099800F024FA00239A4698467B687A
:10202000BFF35F8F00221A6086F310884346002BAF
:1020300051D1002800D126E100F0BEF902000B1EAC
:10204000C7DB00200021069007917868EFF3108627
:1020500072B601680029FCD0BFF35F8F39688846EB
:102060004C7B002C32D0BAD0097B8C42B7D8944933
:1020700065182D01B9688C46654428686968801A1E
:1020800099410029C3DC01D10028C0D1002140467C
:1020900000F004FCA042A8D12A686B68069207935E
:1020A000AB689846EB689A464346002BA3D0002CB9
:1020B000A7D03B681B7B9C42A3D8631EFA68D35C05
:1020C00008931B02184338610020A8E700239A46B2
:1020D00098460020A3E7089B1B02234399465146DC
:1020E0001800C04705000E007A68EFF3108B72B637
:1020F000136859424B41D9B2002BF9D1BFF35F8F1E
:10210000002E26DB002E52DD3B69002B53D04B45C1
:1021100072D100F051F902000B1E73DB01001800B0
:1021200052197341984202D804D1914202D9012236
:102130005242D317002B6BDB002104910131039134
:10214000029451460191414600913800FFF778FE14
:1021500049E03B69002BD5D04B451CD1069A079B23
:1021600010001900521BB341994202D804D1904289
:1021700002D901225242D317002B12DB0021049115
:10218000013103910294514601914146009138007A
:10219000FFF756FE27E04B4B464A9F21434800F08D
:1021A000A7FC3D4B3D4A3F213D4800F0A1FC002EDD
:1021B00001D1002DA8D13A68002C45D0537B9C4218
:1021C0002CD1012100293FD1D37B002B42D1D473E4
:1021D000002C52D03B681B7B9C424ED8FA68013CD5
:1021E000135D0133135500233B617A68BFF35F8FA2
:1021F00013608BF310881FE7324B2E4AA2212B4825
:1022000000F076FC244B254A3F21254800F070FC65
:10221000214B224A3F21224800F06AFC002C0DD0BD
:10222000137B9C420AD863001B19033B1068844649
:1022300063449B78002BC5D00121C3E7224B234A7E
:102240006821234800F054FC224B234AF621204801
:1022500000F04EFC002B0AD0117B8B4207D85900AE
:10226000CB18033B11688C4663445C70AFE7164B98
:10227000164A6821164800F03BFC0A4B0F4A4021E1
:102280000A4800F035FC0BB0F0BCBB46B246A9468C
:10229000A046F0BD881400201057001058670010A9
:1022A00064570010DC6500108C670010A0650010FA
:1022B000D466001070670010EC660010986700107C
:1022C000FFFFFF0FF866001010660010E0670010B7
:1022D0002C66001034670010AC67001010B50A4B74
:1022E0005B68002B04D00A210848FFF7D1FC10BD21
:1022F000054C2300064A1021206800F0EFF9032165
:102300002000FFF7CDFCEEE7380400209C160020EB
:10231000E11C001070B5EFF305833F201840103822
:10232000EFF3108C72B6194B1B68002BFBD0BFF378
:102330005F8F012319008140154A5163154A1278B5
:102340001400C440234214D0114B5C6A8300124D28
:102350005B599C4206D38300104C1B598A430D499C
:102360000A7007E00A4A031D9B0099589950002300
:1023700000E00023BFF35F8F044A002111608CF35B
:102380001088002B00D0984770BDC046280100D0AF
:1023900000400540CF160020A016002008120020A3
:1023A00010B50100024A0348FFF700FA10BDC0460D
:1023B00004680010CD160020044B5B6A034A906A43
:1023C0001900536A9942F9D17047C0460040054050
:1023D00070B504000D00EFF3108672B61B4B1B683E
:1023E000002BFBD0BFF35F8F002D1CD02000FFF728
:1023F000C3FA174B83420BD019002000FFF7C4FA31
:1024000001212000FFF7B0FA0123A340114A136015
:10241000A400114BE550BFF35F8F0C4B00221A60F4
:1024200086F3108870BDA2000B4B0021D150012211
:10243000A2400A490B7893430B7005492000FFF72F
:10244000CDFA00212000FFF78FFAE4E7280100D041
:10245000152300103860054008120020CF16002018
:10246000F0B5DE4600B584B00400150001921E00F0
:102470000293FFF7A1FF03958E4202D84ED1854209
:102480004CD9EFF3108B72B6274B1B68002BFBD097
:10249000BFF35F8F254A17780125A540EBB23B4378
:1024A0001370234B5D63221D92000199D150A2004D
:1024B0002049029850501B6A2B4212D11C4B1B6CB6
:1024C0002B4208D00020BFF35F8F174B00221A6009
:1024D0008BF3108823E0184B184AC121184800F0EC
:1024E00007FBFFF769FF8E4214D802D1039B83429A
:1024F00010D80E4B1B78BB420ED00D4B1D625D6396
:102500001F2004400123A3400E4A1360074B1F7095
:102510001E38D8E70020D6E70120D4E7012004B018
:1025200080BCBB46F0BDC046280100D0CF160020BD
:1025300000400540A0160020286800109468001094
:102540004C68001080E200E0EFF3108C72B60B4B89
:102550001B68002BFBD0BFF35F8F01238340084A29
:10256000136208490A789A430A70BFF35F8F034BDE
:1025700000221A608CF310887047C046280100D0F2
:1025800000400540CF16002010B500291ED0037B67
:1025900099421BD84B005B18033B0468A446634474
:1025A000002919D0002A1DD0914221D0002A25D01F
:1025B000047BA24222D804685000801803382018F7
:1025C0008170197800291FD11A7010BD104B114A63
:1025D0006821114800F08CFA104B114A6F310E48F7
:1025E00000F086FA0F4B0E4A70210B4800F080FA7B
:1025F0000D4B0B4A7121084800F07AFA044B054A4A
:102600006821054800F074FA41701A70DDE7C04691
:1026100010660010A46900102C6600107C66001083
:1026200090690010886600109466001070B506006E
:102630000D001400002914D0002A14D0806873689B
:102640009847002806D0220029003000FFF79CFFA1
:10265000280007E02A0021003000FFF795FF200046
:1026600000E0100070BD0800FCE7000010B500237A
:10267000437301338373037BC3730123027B9A4249
:1026800014D9002B0CD0027B934209D85A00D218DF
:10269000033A01688C4662440133DBB25370EDE7C4
:1026A0000B4B0C4A68210C4800F022FA002A09D092
:1026B000924207D8016853009A18033A8A180023F7
:1026C000537010BD024B034A6821034800F010FA12
:1026D00010660010A46900102C66001010B501737C
:1026E00042608360FFF7C2FF10BD000070B50400B8
:1026F000081E00D170BD002934D0237B994231D807
:102700004B005B18033B2268944663445A78002AC6
:10271000F0D02DD0237B9A422AD853009B18033B3C
:1027200021688C4663445D7800215970002825D0CB
:10273000237B984222D843001B18033B21688C4618
:1027400063440021597001002000FFF76FFF06006D
:1027500029002000FFF7CAFF020031002000FFF728
:1027600065FFC7E7084B094A6821094800F0C0F92E
:10277000054B064A6821064800F0BAF9024B034AA5
:102780006821034800F0B4F910660010A469001035
:102790002C66001070B505000C001600002928D02A
:1027A0002DD0037B99422AD84B005B18033B02686B
:1027B000944663445A78002A27D19A78002A2AD16D
:1027C0001978FFF793FF0300002E03D0EA7B002A5D
:1027D00027D1EC73002B37D1002C49D02B7B9C42A6
:1027E00046D82B6861000C19033C1C190023637048
:1027F00070BD224B224A3821224800F079F9224B41
:10280000224A6821224800F073F9224B1C4A3A21DF
:102810001C4800F06DF9204B194A3B21194800F083
:1028200067F9002A0AD0297B8A4207D851008A1802
:10283000033A29688C4662445470CAE7124B134A23
:102840006821134800F054F9002B0BD02A7B9342E7
:1028500008D843001B18033B2A68944663440022AF
:102860009A70B9E7084B094A6821094800F040F915
:10287000054B064A6821064800F03AF9B068001096
:102880007C690010B868001010660010A469001080
:102890002C660010F86800102069001070B5040064
:1028A0000A00457B2900FFF775FF6073280070BDA3
:1028B00070B50400002967D0437B8B420ED00029FD
:1028C00011D0037B99420ED84B005B18033B026882
:1028D000D0188378002B0CD1002056E00121FFF79F
:1028E000DDFF012051E0294B294A6821294800F0E9
:1028F000FFF8002B20D0227B93421DD85A00D3181A
:10290000033B2268D2182568EB5C8B421AD0002B5F
:102910001BD0227B934218D85A00D318033B22685D
:10292000D21853788B4216D0002BF0D11A4B1B4A89
:1029300067211B4800F0DCF8144B154A6821154844
:1029400000F0D6F84378137007E0104B104A682166
:10295000104800F0CDF84378537000238370437023
:1029600001222000FFF716FF0200617B814205D0A3
:102970002000FFF75BFE6073012006E0094B074A69
:102980006D21074800F0B4F8002070BD10660010FB
:10299000A46900102C660010046500106469001022
:1029A000B86800104469001010B50400FEF75AFF23
:1029B00001002000FFF76CF9FF232371BFF35F8F45
:1029C00010BD10B50400FEF74DFF01002000FFF719
:1029D0005FF9FF23237100236371BFF35F8F10BD85
:1029E00070B504000D00062000F036FAC000290082
:1029F00001F0F0FBC60908D00E4B9E4217D87F238A
:102A0000184001303500460800E001256562A662E5
:102A10002C3480208001044300232360062000F032
:102A20001BFA8000A901891901F0D4FB70BD0026B2
:102A3000014DEBE7FEFF0000FFFF0000002909D079
:102A40000A22064B9C466044434258414000044BD6
:102A5000C252704780225200F3E7C0460080FCBF9C
:102A6000B016002070B505000C00062000F0F4F947
:102A7000002829D0164B9D4227D08022D203154B27
:102A80001A60154B1A60154B9B6811009943FAD1D7
:102A900000212800FFF7D2FF21002800FFF7A0FF48
:102AA0002C002C34E96A60224A406E2111408022B9
:102AB0005201224311600A4B2B6380239B01234365
:102AC00010221A600323AB6470BD80221204D6E783
:102AD0000080034000E0004000F0004000C00040E3
:102AE0000103000000BEFDE710B5FFF7FBFF00008B
:102AF00010B582B00C001900002A0CD0084B002A37
:102B00000BD00192009323000200064802F04CFC17
:102B10000120FFF7E7FF044BF1E7034AF1E7C04666
:102B2000506A0010606A00105C6A001070B52B4B90
:102B30002B4A1A602B4B2C4A1A602C4B9A682A4B52
:102B40009343FAD12A4C01E008CC9847294B9C4288
:102B5000FAD300F001F9234B274A1A60234B9B68F4
:102B6000DB43DB01FAD1254B40229A675A671A678B
:102B7000DA66234C09E0234B234A83212348FFF7DD
:102B8000B7FF2000FFF710FF0834214B9C4209D209
:102B90002368002BF5D0012BEDD12000FFF711FFAA
:102BA0000834F2E71B4CA1681B4DC022280002F03C
:102BB000B7FAA560FDF757FB002800D000BEFEF76E
:102BC00041FEFFF757F8FFF789FB144C01E008CCF2
:102BD0009847134B9C42FAD370BDC04600E00040BA
:102BE000BFCDFBFE00F00040FE7F3C0000C0004077
:102BF0009C040020AC040020FFFFFF0100F0014016
:102C000094040020906A00100C6B0010B06A001051
:102C10009C04002000ED00E000000020AC04002037
:102C2000B40400200FB400B583B0084802F08AFB5A
:102C3000049B002B07D005A90191180002F092FB1C
:102C4000034802F07FFB0120FFF74CFFF86A0010F9
:102C5000086B0010F8B5DE4657464E464546E0B5CF
:102C600005000F0092460A9A93424ED31A0E9146DF
:102C70001E020A9A00233000494601F0EDFA804610
:102C80006C006419A4002F4B9C4664446368834223
:102C900000D260602B1FDBB29B46012B3BD9C023C7
:102CA0009B012343802212011A60AB00264A9958E7
:102CB000002905D0506901F08DFA01300138FDD1AD
:102CC00053465A0123685A40E0231A4080235B018F
:102CD00023431A605A46012A28D980239B012343A3
:102CE000802212011A60434663604246002330008E
:102CF000494601F0B1FAAD00134B58510120F0BC28
:102D0000BB46B246A946A046F8BD104B104A2D213D
:102D10001048FFF7EDFE012FC1D1C0239B012343D3
:102D200003221A60A368DB07FCD5C9E72168794054
:102D300003220A401A60A2680123BB401342FAD062
:102D4000CBE7C04600800040181200201C6B00102A
:102D5000786B0010306B001030B583B00C2000F0A1
:102D600021F9FEF765FD00280DD0002304E099004D
:102D70002D4A2E4888500133092BF8D92A4B2C4A6A
:102D80005A6203B030BD2B4B00229A6700F012F953
:102D9000294B01221A60274B5B6C012BFBD1274B7F
:102DA00003221A60234B9B6B012BFBD10133009351
:102DB0000433234A0121234800F054F805230093EB
:102DC000214A0121214800F04DF8214B00930022B7
:102DD00002210420FFF73EFF1E4D00952B0000222C
:102DE00001210520FFF736FF104C0094230000223C
:102DF00000210720FFF72EFF00942300002200216E
:102E00000820FFF727FF0A4B009323000022002130
:102E10000920FFF71FFF00952B000022002106204C
:102E2000FFF718FFADE7C04618120020006CDC0267
:102E30001BB70000008000403CB0004030B00040B4
:102E4000002F685900800240008C864700C0024075
:102E5000001BB700405973078000014BC0587047F2
:102E600018120020F0B5C64600B504000F009046C9
:102E70001D000C2001F0AEF906003D4A42443D4BD6
:102E80009A4243D843011B1A9901C91AC90009186B
:102E90008901404601F09EF90200103A98235B0038
:102EA0009A4239D86B1E062B3CD8069B013B062B59
:102EB00038D8069B9D423BD343461A09B2423DD3C4
:102EC0002D04069B1E0335432368002B3CDB2A4B55
:102ED0009C424AD080225201284B1A60284B1A602B
:102EE000284B9B6811009943FAD12760A060231DED
:102EF000C02292011A43212313602368002BFCDABD
:102F0000E5600823136080BCB846F0BD1E4B1F4A25
:102F100011211F48FFF7ECFD1E4B1C4A19211C48CC
:102F2000FFF7E6FD1C4B194A1C211948FFF7E0FD8D
:102F30001A4B164A22211648FFF7DAFD184B134A9E
:102F400025211348FFF7D4FD22683F231340BB42DD
:102F5000BDD1A3681B051B0D8342B8D1E368EE22E7
:102F6000D2021340AB42B2D1CDE780229201B3E747
:102F700080E84BD380F8A93200C0024000E0004056
:102F800000F0004000C00040886B0010C86C0010CA
:102F9000E86B00102C6C0010486C0010946C001052
:102FA000AC6C001080239B000343014AD36270473E
:102FB00000800540064BAA2212011A602F22DA6017
:102FC000044B054A1A60024B5B68002BFBDA704722
:102FD000004002400060024000B0FA00704710B5A7
:102FE000002802D00B684968984710BD01000020F6
:102FF00007E083001B185B00501C08601078C018A5
:1030000030380A681378303BDBB2092BF1D97047AE
:10301000F0B5DE4657464E464546E0B583B093468A
:103020001F000C9B9A460D9C0E9B99460F9B9B077D
:1030300003D0B8460F00060022E00192A34688465E
:103040004E46B9460700B44207D2551C4B4641468E
:103050002020B84701342A00F5E73D004F465C4682
:10306000019B9B46B1464646B84637002E0007E016
:10307000013C551C5346185D43463900B0472A00B1
:10308000002CF5D135003E0047460F9B9B0707D427
:10309000100003B0F0BCBB46B246A946A046F0BD46
:1030A000B0464E46B9462F005D46531BB342EFD2A1
:1030B000541C4B4641462020B8472200F5E7F0B5A6
:1030C000CE46474680B585B0944698460C9D0D9CEB
:1030D0000EAB1B789946109A119B129EB7071CD411
:1030E000002B0CD0F7070AD54F46002F02D10C3722
:1030F000374204D0013B02E030272F55013494427F
:1031000001D21F2CF8D9F70707D59C4205D21F2CF6
:1031100003D830272F550134F5E7F70615D5770585
:1031200005D4002C03D0944224D09C4222D00F9A84
:10313000102A2BD00F9A102A30D00F9A022A35D09D
:103140001F2C02D830222A5501341F2C05D84A469C
:10315000002A31D02D222A5501340396029301947E
:10316000009543466246FFF753FF05B0C0BCB94621
:10317000B046F0BD621E012C06D00F9F102F01D06B
:103180001400D4E7023CD2E71400D0E7B206D1D451
:103190001F2CCFD878222A550134D1E7B206CCD5DE
:1031A0001F2CCAD858222A550134C9E71F2CC7D86A
:1031B00060322A550134C3E7720703D52B222A5502
:1031C0000134CAE73207C8D520222A550134C4E7A2
:1031D000F0B5DE4657464E464546E0B593B08146CB
:1031E0008A46089209931CAB10CB1B789B461E9D08
:1031F000219B9846002C03D1102342469A439046C7
:103200008023DB0046461E4042461A4212D0002C64
:1032100022D000260EE03033D9B2771C0AAB995584
:103220002900200000F0D6FFAC4216D31F2F14D87F
:103230003E0004002900200000F0CCFFCBB2092B97
:10324000E9D94246920605D54121C918C9B20A39C1
:10325000C9B2E2E76121F8E7270043460693209BC5
:1032600005931F9B049303955B46029301970AAB5A
:103270000093099B089A51464846FFF720FF13B078
:10328000F0BCBB46B246A946A046F0BDF0B5DE464E
:1032900057464E464546E0B595B0089009910A92CA
:1032A0000B931E9E1F9C20AB1B789B46229B99462E
:1032B000239D269B9A463300234303D11033524665
:1032C0009A4392468023DB0057461F4052461A42DB
:1032D00019D0330023432DD0002714E03033DAB265
:1032E0007B1C98460CABDA554A462B003000210077
:1032F00000F0B2FFA5421FD819D043461F2B1BD8A0
:10330000474606000C004A462B003000210000F022
:10331000A3FFD3B2092BE1D95246920605D541222B
:10332000D218D2B20A3AD2B2DAE76122F8E7B1454E
:10333000E3D901E00023984653460693259B059365
:10334000249B04934B4603935B46029343460193AD
:103350000CAB00930B9B0A9A09990898FFF7AFFEF4
:1033600015B0F0BCBB46B246A946A046F0BD000071
:10337000F0B5DE4657464E464546E0B591B0834629
:103380008A460C9298461A9C08941B9D0995220027
:103390002B002000290001F0EEF9002800D0E5E024
:1033A00001225242D74B2000290001F0DFF900280A
:1033B00000D0DBE001225242D34B2000290001F073
:1033C000BFF9002800D0D1E000220023089E300081
:1033D000099D290001F0B4F9002800D0DDE008982B
:1033E0000999069007918023DB001E9A1A400D92DE
:1033F0001E9A1A4201D106231C93069807990400CD
:103400000D000A000600024300D1D1E0080D40057E
:10341000400DBE4CA44660440A03120BBC4B134340
:103420001F0001F0BBF9BB4ABB4B01F046F9BB4A98
:10343000BB4B01F01BF904000D000022B94B30001A
:10344000390001F00AF9B84AB84B01F036F9020028
:103450000B002000290001F009F901F0B7F98146BD
:1034600001F09CF904000D00B14AB24B01F025F9BE
:103470000022B14B01F0FAF801F0A8F90600AF4ABA
:10348000AF4B2000290001F018F904000D003000B6
:1034900001F084F9AB4AAC4B01F00FF902000B00CC
:1034A0002000290001F0D9F804000D0002000B00F3
:1034B00001F003F90A900B91A44BF31800261F05A5
:1034C00022002B002000290001F0D0F80E900F916F
:1034D00022002B0000208021C90501F0BEF8040065
:1034E0000D0000229A4B0A980B9901F0C8F80022AF
:1034F000984B01F0BBF802000B000A980B9901F001
:10350000BEF80022944B01F0B1F802000B000A98BB
:103510000B9901F0B4F802000B002000290001F023
:10352000A5F802000B000E980F9901F0A8F80022F0
:10353000774B01F09BF832003B0001F0BEF806002B
:103540000F0004000D00069A079B01F00FF90028F8
:1035500030D001235B429C46E14400227D4B300089
:10356000390001F08CF804000D0023E01E9B049349
:103570001D9B03931C9B0293089A099B0092019345
:1035800043460C9A5146584600F0FCF811B0F0BC86
:10359000BB46B246A946A046F0BD002300240693D0
:1035A0000794069680231B069C46654407951AE7F8
:1035B000002399464B466333C62B1ED804261E9B18
:1035C0001B0526D52B0023430FD0644A644B069875
:1035D000079901F0C3F8002879D00022614B0698C2
:1035E000079901F0ADF8002871D01C9B4B4506DD12
:1035F0004A46981A431E1C9303E00526DFE7002382
:103600001C938023DB001E9A1A431E92002600237F
:1036100099461D9B9E4264D29F1B02231E9A1A400C
:103620000A921E9A134202D0002E00D000274B4669
:10363000002B07D022002B000698079901F01FF8F5
:1036400006900791002200230898099901F078F864
:10365000002848D1444B1E9A1340049303971C9BA7
:103660000293069B079C0093019443460C9A514693
:10367000584600F087F8002E00D187E71E9B9B0676
:103680003DD54525441C4346020051462800D847F5
:103690004B46DA179B18534005220592013E0496CB
:1036A000002203920A3202924A46D00F0190009300
:1036B0004346220051465846FFF78AFD0A9B002BDD
:1036C00000D163E702005F460C9E1D9D54E01C9BE9
:1036D000002B9ED00D9B002B9BD01C9B013B1C9371
:1036E00097E7002799E7069C079D22002900802084
:1036F0000006844661440B0006920793AAE76525FD
:10370000C0E7C046FFFFEF7FFFFFEFFF01FCFFFFB9
:103710000000F03FFB799F501344D33FB3C8608B48
:10372000288AC63F0000F83F61436F63A787D23FF6
:1037300071A379094F930A400000E03F1655B5BBCD
:10374000B16B0240EF39FAFE422EE63FFF03000064
:1037500000002C4000002440000018402D431CEBCA
:10376000E2361A3F80842E41FFF7FFFF541C434688
:1037700051462020B8472200931BAB42F6D31000DD
:1037800004E7C046F0B5DE4657464E464546E0B52E
:1037900095B00690079193469946209F1E9A1F9BCD
:1037A0001000190000F0E7FF002831D10122524239
:1037B000BF4B1E981F9900F0C3FF002837D101228C
:1037C0005242BC4B1E981F9900F0D0FF00283DD1FB
:1037D0000022B94B1E981F9900F0C8FF002850D155
:1037E0000022B64B1E981F9900F0AAFF002848D16E
:1037F000002200231E981F9900F0A2FF002850D13C
:1038000000239846229B5B0500D4B6E0002458E0D4
:10381000229B0393219B029303230193A84B0093C4
:103820004B465A4607990698FFF7F2FB0EE1229B9A
:103830000393219B029304230193A24B00934B46D5
:103840005A4607990698FFF7E3FBFFE00423229A04
:103850001A4022990B4210D09B4B002A0FD0042211
:103860002299039121990291019200934B465A4665
:1038700007990698FFF7CCFBE8E0944BEDE70322AD
:10388000EEE7229B0493219B039302971E9B1F9CB0
:10389000009301944B465A4607990698FFF768FD36
:1038A000D4E01E9A1F9B0020002100F0D6FE1E903F
:1038B0001F9101239846A5E70CAB30221A55013F12
:1038C00001341F2C01D8092FF6D81E981F9900F03B
:1038D0007DFF050000F062FF02000B001E981F999B
:1038E00000F0BBFEFA007A4B9B181A685B680A92DC
:1038F0000B9300F0E2FE0890099100F08BFF0600A8
:1039000000F048FF02000B000898099900F0A5FE9E
:103910000890099100226F4B00F028FF00282ED05C
:103920000136300000F036FF02000B000A980B99B8
:1039300000F00CFF002801D001350026002F2CD10B
:10394000280000F02BFF02000B001E981F9900F0CA
:1039500084FE06000F0000225E4B00F0F1FE0028FE
:1039600046D100225B4B3000390000F0FFFE0028FA
:103970003ED1EB073CD501353AE0062746E7002269
:10398000544B0898099900F0DBFE0028D6D1002E90
:1039900001D0F307D2D50136D0E7AA461F2C11D8A3
:1039A000013F0A21300000F015FC651C30310CABE2
:1039B00019550A21300000F00DFC092E0ED9060021
:1039C0002C00EBE755461F2C0CD87B1E002F09D08E
:1039D0000CAA302111551F000134F4E72B00554685
:1039E0001C00F0E71F2C03D80CAB2E221A55013413
:1039F0001F2C10D80A21280000F0C4FB661C3031AF
:103A00000CAB19550A21280000F0BCFB051E01D0A3
:103A10003400EDE734000323229A1340012B1CD01D
:103A20001F2C06D84346002B32D00CAB2D221A5542
:103A30000134229B0393219B029301940CAB0093CE
:103A40004B465A4607990698FFF7E2FA15B0F0BCC4
:103A5000BB46B246A946A046F0BD219B002B13D021
:103A60004346002B02D10C3313420FD0219B013B64
:103A70002193190003E00CAB30221A5501348C421B
:103A8000CED21F2CF7D9CBE72199F8E72199F6E799
:103A9000229B5B0704D50CAB2B221A550134C8E7D7
:103AA000229B1B07C5D50CAB20221A550134C0E759
:103AB000FFFFEFFFFFFFEF7F65CDCD4165CDCDC1AE
:103AC000E06C0010E46C0010D86C0010D46C001096
:103AD000D06E00100000E03FF0B5DE4657464E467F
:103AE0004546E0B593B082468B4690461193002937
:103AF00000D1EBE200275546119B1878002800D131
:103B0000E7E2252809D07C1C43463A005946A847DD
:103B1000119B013311932700EEE701331193002429
:103B2000119A11780B00203BD8B2102803D88300DB
:103B3000D048C3589F460B00303BDBB2092B2CD931
:103B40002A292FD000230A93119B1A782E2A39D0C4
:103B500000239A46119A1378683BD9B2122976D875
:103B60008B00C549CB589F4601231C43013211925B
:103B7000D6E702231C4301321192D1E704231C43F0
:103B800001321192CCE708231C4301321192C7E79E
:103B900010231C4301321192C2E711A8FFF726FA45
:103BA0000A90D1E71C9B1A1D1C921868002804DBA0
:103BB0000A90119B01331193C6E702231C43434231
:103BC0000A93F6E78022D20014435A1C11925A78C5
:103BD0001300303BDBB2092B04D92A2A07D000237B
:103BE0009A46B7E711A8FFF701FA8246B2E71C9B95
:103BF0001A1D1C921868002804DB8246119B0133B1
:103C00001193A7E70020F8E780235B002343511CB2
:103C1000119152786C2A01D01C0018E0C0239B003F
:103C20001C430131119112E080232343511C119157
:103C30005278682A01D01C0009E0C0231C430131DE
:103C4000119104E080235B001C4301321192119B0F
:103C500018780300253BDAB2532A00D92CE29300EE
:103C6000864AD3589F4680239B001C430132119201
:103C7000EDE780235B001C4301321192E7E77828CF
:103C800009D0582838D06F2838D0622838D010236F
:103C90009C430A2600E01026582833D0692803D018
:103CA000642801D00C229443630501D5012294437A
:103CB00069282AD0642828D0A30500D59FE0E30511
:103CC00000D5B8E0630600D4CAE01C9A111D1C910F
:103CD0001168FF220A4005940A9B049353460393FC
:103CE000029600230193009243463A005946280069
:103CF000FFF76EFA070027E01026CDE70826CBE78E
:103D00000226C9E720221443C8E7A30520D4E3050F
:103D100050D4630666D51C9A111D1C911168FF22B0
:103D20000A40D317D118594005940A9B049353466F
:103D300003930296D20F0192009143463A005946EE
:103D40002800FFF745FA0700119B01331193D3E6D2
:103D50001C9BDA1D07218A43110008311C91116850
:103D600053689C46DB170C930D930C9A0D9B100027
:103D700048400E90624653400F930E980F990C9A4C
:103D80000D9B801A99410E900F9108940A9B0793FE
:103D9000534606930496002305936346DA0F029276
:103DA0000090019143463A0059462800FFF76EFA09
:103DB0000700C9E71C9A111D1C911268D317D1186E
:103DC000594005940A9B0493534603930296D20FDD
:103DD0000192009143463A0059462800FFF7F8F94E
:103DE0000700B1E7230605D51C9A111D1C9100237D
:103DF000D25E96E71C9A111D1C91126891E71C9BDC
:103E0000DA1D07218A43110008311C9108940A9B8E
:103E10000793534606930496002305930293136871
:103E200054680093019443463A0059462800FFF72E
:103E30002DFA070088E71C9A111D1C9105940A9B16
:103E4000049353460393029600230193136800934F
:103E500043463A0059462800FFF7BAF9070073E7CE
:103E600023060DD51C9A111D1C9112681204120C08
:103E700031E7C046EC6C0010306D00107C6D001016
:103E80001C9A111D1C91126825E746281AD01C9B0C
:103E90000733072293431A0008321C9204940A9AAB
:103EA0000392524602925C681B6800930194434659
:103EB0003A0059462800FFF765FC0700119B0133C3
:103EC000119319E620231C43E1E7672801D0472816
:103ED00002D180231B011C43452801D0472801D172
:103EE00020231C431C9B0733072293431A000832EC
:103EF0001C9204940A9A0392524602925C681B68D0
:103F00000093019443463A0059462800FFF730FADF
:103F10000700119B01331193EEE502231A002240A2
:103F2000924623421FD001241C9B1A1D1C927A1C0E
:103F30009146187843463A005946A8475346002B05
:103F400016D1119B013311934F46D5E5561C4346BC
:103F500059462020B847230032005C1C9D42F5D80A
:103F60003D001700E0E701233A002F000A9DF4E727
:103F70004A46A9460A9D06E0571C4346594620205A
:103F8000C84734003A00661CA542F5D84D46914614
:103F9000D7E71C9B1A1D1C921B6899465346002BA1
:103FA00000D1013B4E4601E0013613003278002A71
:103FB00002D05A1E002BF7D14B46F21A10928023E2
:103FC000DB0026001E401C4203D0524501D9534657
:103FD000109302231A0022400B92234205D03A008C
:103FE00037004C46A946554620E03A00109B5F46F4
:103FF000B3462E0006E0551C434639002020B0474A
:1040000023002A005C1C0A999942F4D835005E46C8
:10401000BB46109437004C46A946554606E01D00A5
:104020000134561C43465946C847320020780028C0
:1040300004D0002FF4D06B1E002DF0D117004D4698
:104040000B9B002B03D1119B0133119354E50A9F65
:10405000109B06E0561C434659462020A8472300E3
:1040600032005C1C9F42F5D81700ECE721231C436B
:104070001C9B1A1D1C921B68009305940823049333
:1040800053460393102302930023019343463A00BF
:1040900059462800FFF79CF80700119B0133119344
:1040A0002AE57C1C43463A0059462520A847119B27
:1040B0000133119327001FE57C1C43463A00594603
:1040C000A847119B01331193270015E50A4B9A4627
:1040D00010E5AA46474502D343465A1E00E03A007F
:1040E000434659460020D047380013B0F0BCBB46C9
:1040F000B246A946A046F0BDDD2F001000B585B040
:10410000029003910121009313004A4202A9024840
:10411000FFF7E2FC05B000BDDF2F001001480421CD
:10412000014B1847600400204D41001010B50100FC
:1041300018231B8814221088984710BD10B5010061
:1041400018231B8816221088984710BDF0B5C64664
:1041500000B507000E0000250123984600E0013558
:10416000B5420AD2AC003C192068FFF7DFFF20609F
:104170000028F4D100239846F1E7404680BCB846B9
:10418000F0BD0000124A936F9B0815D29066D1666D
:10419000002905D0FFE7FFE7FFE7516F106F704779
:1041A00004B580210906C2175140002800D0C84339
:1041B00001F096FA002104BDF0B5146E556E576FEC
:1041C000166FFFF7E3FF1466556657671667F0BD75
:1041D000000000D0114A936F9B0813D210665166FD
:1041E000002905D0FFE7FFE7FFE7516F106F704729
:1041F00004B5002801D00020C04301F071FA00216D
:1042000004BDC046F0B5146E556E576F166FFFF7BC
:10421000E5FF1466556657671667F0BD000000D0CD
:1042200094464E4A926F9208624601D230E0C046F0
:10423000F0B54A4EB56F6D08FCD3346E756E776F6E
:10424000366F00F025F89446444A14665566576761
:1042500016676246F0BDC0469446404A926F920887
:10426000624601D258E0C046F0B53C4EB56F6D08CD
:10427000FCD3346E756E776F366F00F04DF8944650
:10428000364A14665566576716676246F0BDC046E3
:10429000002B24DB11D000293EDA00B5C94340428F
:1042A00000D1013100F038F8C943404200D101315A
:1042B000DB43524200D1013300BD002AEBD100287C
:1042C00001D1002905D00020C90FC90701D1C04381
:1042D000410800B501F0FCF90022002300BD00B543
:1042E00000290ADBDB43524200D1013300F014F80D
:1042F000C943404200D1013100BDC943404200D111
:104300000131DB43524200D1013300F005F8DB43B9
:10431000524200D1013300BD002923D1002B18D116
:10432000002A0CD0BC460D4F38667A660021002367
:10433000FFE7FFE7FFE77A6F386F674670470028AF
:1043400001D00748010000B501F0C2F900220023A6
:1043500000BD02000B00002000217047000000D0CB
:10436000FFFFFFFF002B00D0BFE0130C28D1002A75
:10437000E7D080B4114F39667A66FFE7FFE730B4C3
:10438000040C7B6F396F1B0423433B667A66FFE79F
:10439000FFE7FFE7C04684B27B6F3D6F1B042343FA
:1043A0003B667A66FFE7FFE7C04600232C042D0C2E
:1043B0007A6F386F00196941B0BC7047000000D0B7
:1043C000F0B594460025140E01D112020835140FE1
:1043D00001D112010435940F01D192000235D40F9E
:1043E00001D152000135D40B0134254F7C66254C98
:1043F0003C660E0C93B2FFE7FFE7FFE73C6F6643B6
:10440000360C7703BE467343DF0B5B04C01AB94119
:10441000130C7343DB18C91ACE086643360CB64436
:1044200093B273431F0F1B01C01AB941130C73439E
:104430001F0B1B05C01AB941860D8F023E43664310
:10444000360C092D24DB520A7243801A7703460A80
:104450006643360C16235B1BDE40DF40BF19644603
:104460006643821B7046043506330100D940A840DC
:10447000C01900D30131A24206D20023F0BD0000D2
:10448000000000D0FFFFFFFF121B0130F3D3F1E764
:1044900009277F1BFE406446A2B27243801A00D2F5
:1044A0000139220C7243130C1204821A99410B0039
:1044B0007046043513370100F940A840801900D335
:1044C0000131002B02D1A2420AD2F0BD013000D34B
:1044D0000131121BFAD2013BF8D1A24200D2F0BD49
:1044E000013000D30131121BF7E7F0B51C0C00D0EE
:1044F00080E00CB400251C0A04D11B02160E3343C5
:10450000120208351C0B04D11B01160F3343120194
:1045100004359C0B04D19B00960F33439200023567
:10452000DC0B02D192185B4101351C0097186441E5
:104530000134464F7C66464C3C660E0CFFE7FFE7B5
:10454000FFE7C0463C6F6643360C7703BE4697B222
:104550007743C01B00D20139C01B00D201399FB282
:104560007743C91BC91B170C77437E04FF0B801BC5
:10457000B941CE086643360C0C2D33DBB644120B22
:104580001F053A431B0B97B27743C01B00D201397A
:104590009FB27743C91B170C77433E043F0C801B27
:1045A000B941860D8F023E43664329277F1BFE409B
:1045B0000C3D7746AF40BF1930BCA2B2ABB27243DC
:1045C0007343801A9941220C7243130C1204801A0F
:1045D000994102000B000137001BA941F9D2781E56
:1045E0000021F0BD0C277F1BFE4077467F0BAF40BC
:1045F000FF19E0E700245D1C07D0144F7D66396683
:10460000FFE7FFE7FFE7FFE73C6F95B29EB2654328
:104610006643401BB141150C1E0C654366433604CE
:104620002F0C3E432D04401BB141994204D202009D
:104630000B0020000021F0BD01D19042F7D3801A79
:10464000994101349942F2D3F6E70000000000D00E
:10465000FFFFFFFF48404140484018B41B4B5B68D8
:10466000FC46019308BD04DF2F49001018B4174B16
:104670001B68FC46019308BD00DF394900109446D1
:10468000134A926F920809D2624618B40F4BDB6846
:10469000FC46019308BD0CDFF14B00100C4AF0B54D
:1046A000146E556E576F166F6246FFF7EEFF084A9D
:1046B0001466556657671667F0BD18B4034B9B68C0
:1046C000FC46019308BD08DF954A001098140020AD
:1046D000000000D0FFB550404240504059404B4090
:1046E000594000E0FFB5154F4C00640D03D0BC42AB
:1046F00004D10C0314D80020090D09055C00640DD9
:1047000003D0BC4204D11C030AD800221B0D1B0598
:1047100001264B4009D44B4003D58B4200D1824245
:10472000FFBD9942FCD19042FFBD0B43DB18034310
:104730001343F5D0C9434918FFBD0000FF0700002F
:1047400000B5FFF7CFFF804100BDC04600B5FFF7C1
:10475000C9FF01D9002000BD012000BD00B5FFF751
:10476000B9FF01D9002000BD012000BD00B5FFF751
:10477000B1FF804100BD012040054A00121804D855
:104780005A00121801D800207047012070470020FD
:10479000704700000021002805D17047C11748402C
:1047A000401AFAD0C90713B5064B1B6898470CBCD2
:1047B000441CA2401005120B0349091B09051943AB
:1047C000114310BD981500201F04000010B54C00C7
:1047D000620D8023D218DB00D21A5B057E2A10DD21
:1047E0009E3A13DACC170903490819435242D140C3
:1047F000640001341532202A05DAD04008436043B2
:1048000010BD002010BD0846604310BDC80FC01881
:10481000013810BD18B4044B5B6AFC46019308BD17
:1048200024DFA14D001000009814002070B5132360
:104830001C78012C14D0012C14DC022C02DC1F4A41
:104840001F4B9A641F48FFF771FC1F4B186070BD27
:1048500099001A481A4A885001331F2BF8D9EAE701
:104860000023FAE71948FFF769FC05001848FFF72D
:1048700065FC023803789B007F2B19DD802229001C
:104880000F4800F04DFC022CD7D1124B1A88B523EB
:104890001B029A4209D1104B1A88104B9A4204D13C
:1048A0000F4B1A880F4B9A42C7D00020FEF7BAF977
:1048B0000D4B0E4A32210E48FEF71AF9F54800104A
:1048C000981400204C330000981500205344000039
:1048D0005346000054380000D83800004946000014
:1048E0009C38000059460000206F0010D06F001067
:1048F000806F001007B56046002800D100BE018817
:104900000A0A0230DF2AFAD1C9B2820804D3028827
:1049100040880004104300E00068024A50500390B1
:1049200007BD0000981400200FB403BC0CBCF0B508
:104930000124E407634000E0F0B50C0DCF0F661EC4
:104940003605891B640503D3C943404200D30131B6
:10495000640D03D0661CF60A07D0E41B00207F001C
:10496000791C89078912803C24031D0DDF0F6E1E00
:1049700036059B1B6D0503D3DB43524200D3013345
:104980006D0D03D06E1CF60A07D0ED1B00227F00D0
:104990007B1C9B079B12803D2D032F1B661B58D44D
:1049A000A446202E46DA20371400BC401D00BD402E
:1049B000F24033412A4380185941CB0F05D0C943F7
:1049C000C043002264425041514162464D0D28D1FE
:1049D0000D0D07D100281FD0241940414941013A4B
:1049E0000D0DF9D0640006D3013000D30131002C45
:1049F00001D140084000013A0BD4941CE40A04D1D0
:104A000012051144DB071944F0BDD907204B1943A7
:104A100000E0D9070020F0BD0029DDD1002CDBD15A
:104A2000F0BD0132C6074008CD0728434908002ED3
:104A3000E1D0D9E73C2E29DA203E40371400BC40B3
:104A400000D00124F24014431A00BB401C43D3178A
:104A5000ACE7AC46202F08DA20360400B4400D0045
:104A6000B540F84039412843A5E73C2F0CDA203FF8
:104A700040360400B44000D00124F840044308004C
:104A8000B1400C43C117EAE710001900002494E775
:104A90000000F07FF0B50C0D661E3605891BE60A96
:104AA0006405640D02D0651CED0A04D000200121CC
:104AB0000905803C2403A4461C0D671E3F05DB1B33
:104AC000E70A6405640D02D0651CED0A04D00022DB
:104AD00001231B05803C24037740644497B484B2CF
:104AE00096B27443070C7E43150C6F4380B2684343
:104AF000361802D3012000043F183004350C001989
:104B00007D41844688B29AB250430C0C62431F0C1C
:104B10007C438EB27E43921902D301263604A41937
:104B20001604170C3618674101BC81B29AB2514382
:104B3000040C62431B0C5C4380B25843121802D32E
:104B40000120000424181004130C401863412D1890
:104B50005E410020474106BC88B293B258430C0C1A
:104B60006343120C544389B251435B1802D30121B1
:104B70000904641819041A0C091862416D18564189
:104B80000020474118BCF902720D1143F0026A0D72
:104B90001043ED020A0D03D16D1940414941013B1B
:104BA000124E9B1B7600B3420ED26D0007D301302C
:104BB000002671416646354301D1400840001B057F
:104BC000C918E4072144F0BD0BDA013306D10130E6
:104BD00004D101314F0D01D04908F2E7E10700206F
:104BE000F0BD013631050020EBE70000FF030000B7
:104BF000F0B51C0D671E3F05DB1BE70A6405640D5D
:104C000002D0661CF60A04D0002201231B05803C5A
:104C10002403D0252D060026F6432E661E096E6657
:104C2000CE0FF619B44649004F0D02D07E1CF60A8D
:104C300003D000200021403F3F033E1BB600B44498
:104C4000013F7F05C91B49082E6F013676089C027B
:104C5000950D25437543ED137543AD1301356D1067
:104C6000F603761B0CB4CC02450D2C43A2B2B3B2B2
:104C70005A43270C7B43350C6F43A4B26C431B197A
:104C800002D3012424043F191C041D0CA4187D41E7
:104C900024196D41009A91B2ACB26143170C7C4368
:104CA0002B0C5F4392B25A43A41802D30122120480
:104CB000BF182204230C52187B41019C6C431B1922
:104CC000520ED9010A434401A01A81B2B2B2514333
:104CD00003145A43360C734387B27743D617D2195D
:104CE00000277E4136049B191704160C7F185E417D
:104CF0007316ED18F301002680337541A90F06D114
:104D00006400690AE8055B0A184309D22FE004220F
:104D1000944480337541A90AA8059B0A184326D3F9
:104D2000404149412404009A019B0D005543641BF6
:104D30004343E41A95B286B27543170C7E43030CC5
:104D40005F4392B25A43B61802D301221204BF182D
:104D50003204330C52197B4152429C41002C02D444
:104D60000022013051414008CA071043490802B0EF
:104D70006246D7079210084BD218084B9A4203D2CA
:104D800012058918C919F0BD0020002A01DC39007C
:104D9000F0BD01331905F5E7FD030000FE07000033
:104DA000002200B5203200F004F8080000BD000029
:104DB00000220B150AD410B5944600F031F81414F3
:104DC000013400DA0021CB17144C204700200021C9
:104DD00070476244343A0CD40C2A07DA040091403C
:104DE000904052422032D440214310BDD843D94391
:104DF00010BD203207D40C4694405242203211415B
:104E0000D040204310BD0800C917203203D45242BD
:104E10002032104110BD1800190010BDD34D0010F4
:104E20000A0DCC0F531E1B05C91A520503D3C943E3
:104E3000404200D30131520D03D0531CDB0A07D08E
:104E4000121B00206400611C89078912803A12033A
:104E5000014BD21A70470000FF0300005143434347
:104E6000C9188C46110C83B24B4310B4040C614337
:104E700092B280B2504362431C041B0C001910BC58
:104E800059411304120CC01851416144704700008D
:104E900048404140484000239C46114B5B681847FE
:104EA00000239C460E4B1B6818470E4A936F9B08C5
:104EB00004D200239C460A4BDB681847F0B5146EF9
:104EC000556E576F166FFFF7F4FF064A1466556666
:104ED00057671667F0BD00239C46014B9B68184737
:104EE0009C150020000000D0491A002808D108466F
:104EF00070470000C10FC90700D54042002817D0F5
:104F0000F44603B40B4B1B68984706BC81409E389F
:104F10004042803107D20B0607D04900490AC0053C
:104F20001043084360470130F8E7490A8902F5E772
:104F3000704700009815002041000A0E80231B06D0
:104F40007E2A0BDD9E3A0BDAC11740024008184357
:104F50005242D04049000131484370470020704719
:104F6000C00FC01801387047C0420DD300B54000D3
:104F70004008002100F012F8002801D4404200BD92
:104F80008020000600BD0000034BDB69FC4618478B
:104F90001CDFED50001000009C15002000239C46F3
:104FA000014B5B6A184700009C15002000239C46BB
:104FB000014BDB6C184700009C15002070B51323D3
:104FC0001D782A48FFF7BAF80400012D11D0012DF1
:104FD00009DDA31E1B789B007F2B40DD8022210072
:104FE000234800F09DF82348FFF7A0F8224B1860F3
:104FF00070BD542201001E4800F092F81F4B1A8821
:105000001F4B9A421CD1A7239B011A881D4B9A4221
:1050100016D11D4B1A881D4B9A4211D11C4B1A8870
:1050200094239B019A420BD11A4B1A881A4B9A422D
:1050300006D11A4B1A681A4B9A4201D1152307E080
:105040001848FDF7EFFD99001748094A88500133C9
:105050001F2BF8D9144A064B1A62DA61B7E7134BD3
:10506000134A42211348FDF743FDC0465346000052
:105070009C1500204C33000098150020EE290000FC
:10508000C40F0000C20D0000962B0000C0B5000048
:10509000182B0000CC2A000010B50000FC2C0000EA
:1050A00051ED87645C6A0010B9500010E46F001085
:1050B000647000101870001007B56046002800D119
:1050C00000BE01880A0A0230DF2AFAD1C9B282087A
:1050D00004D3028840880004104300E00068024ABC
:1050E0005050039007BD00009C1500200021C21500
:1050F0008032803201D0024A104700207047000001
:10510000CD2A000001480421014B184770040020FB
:105110004D410010014B1B6818470000700400202F
:10512000014B5B68184700007004002010B50300B5
:10513000080011001B68984710BD0000F8B5070073
:105140000D001600437C002B02D0002400200CE050
:1051500003681100280098472DE03B7C10E00221F5
:1051600015483B689847601C0134B44214DA002C9F
:10517000F3DD2B19013B1B780D3B5A425341DBB247
:105180002A5D0A2AF0D1002BEED1A042E7DA211ADB
:1051900028183B689847E2E7B04203DA311A28182A
:1051A0003B689847002E06DDAD19013D2B780D3B7D
:1051B0005A4253413B74F8BDEC70001070B50500C5
:1051C0000368002B16D00C4B1C6805E0290004C9AD
:1051D0002000FFF7B3FFE468002C09D02368002B00
:1051E000F9D0064B1B68002BF0D0A342F3D1EDE7BA
:1051F00000232B6070BDC046801200208412002066
:1052000070B505000C000B68802B05D021684B1C85
:1052100023606418257170BD0800FFF7CFFFF5E724
:1052200010B582B0D0231B0600241C5701A90748E3
:1052300000F05EFA002806D1019B9C4203D003488F
:1052400000F05EFA012002B010BDC04694040020B8
:1052500010B5024800F034FA10BDC0469404002096
:10526000F0B5CE46474680B583B006000D009046A7
:105270001C00FFF7D5FF81466B1C05D0002C08D021
:10528000194F1A4B1C6807E0300000F0E9F90500DF
:10529000F4E7174FF5E7E468002C17D02368002BDC
:1052A000F9D0144B1B68002B01D0A342F3D12A0084
:1052B00031002000B8474346002BECD06B46D91D87
:1052C0000A230B7001222000B847E4E74B46002B6D
:1052D00007D16B1E9D41E8B203B0C0BCB946B046D1
:1052E000F0BDFFF7B5FFF4E72D510010801200204C
:1052F0003D51001084120020094A01E00C331A00CD
:105300001368002B08D08342F8D1002907D1C36865
:1053100013600023C36002E0002900D010607047D2
:105320008012002010B5064B1C6801E09847E46825
:10533000002C03D06368002BF8D1F8E710BDC046FD
:105340008012002070B5050000F08AF904000023E7
:10535000012201002800FFF783FFFFF7E3FF200091
:1053600070BD000070B5A2B004000E00FFF758FF3A
:1053700005008422002101A8FFF7CCFE33002200A3
:1053800001A90848FEF7BAFE040001A8FFF716FFBE
:10539000FFF7C8FF002D02D1200022B070BDFFF73B
:1053A00057FFF9E7015200100FB400B583B004A90C
:1053B00001C90191FFF7D6FF03B008BC04B018473C
:1053C00010B500F085F810BDF0B583B005000E00F3
:1053D00000240FE06B46D91D0D230B700020002820
:1053E00016D193699B06FCD40B7813600130013110
:1053F000F5E70134B44219DA0D4B1A682F5D0D4BF5
:10540000D31859424B415B000B495B5EBB42E1D074
:105410006B46D91D0F7000200028EAD193699B06C6
:10542000FCD40B78136001300131F5E703B0F0BD17
:10543000B41600200080FCBFB0160020F0B583B089
:1054400006000F00002004E06B4607331B78237032
:105450002800B84215DA0E4B1A689369102421000F
:1054600019401C420DD1451C34186B46D81D00292B
:10547000EAD19369DB06FCD4136803700131013073
:10548000F5E7002801D003B0F0BD0338FBE7C046C4
:10549000B416002070B515001C000B4B1860FDF70A
:1054A000E1FA002D06DA002C09DA01210748FFF79E
:1054B00023FF70BD02212800FCF70CF9F3E702215D
:1054C0002000FCF707F9F0E7B41600208004002064
:1054D00010B5064B1B78064B1B78E12101230022F7
:1054E00049020448FFF7D6FF10BDC0468C7100107A
:1054F0009071001000400340F0B5D646474680B595
:1055000083B0824688460620FDF7A6FC07000224E9
:1055100000E02C00FE2C1CD801970026A51C2802B8
:10552000424600230021FFF799FC002903D1B14234
:10553000EFD1B842EDD980256D00012D0CD96E1E3A
:10554000210071433800FEF745FE404504D8350080
:10555000F3E780256D00F0E753461C616B1E1B02CC
:10556000524612685340FF2212021340802040012D
:10557000524610430360290061433800FEF72AFEBB
:1055800003B0C0BCBA46B046F0BD000010B5040080
:10559000144B984222D080229202134B1A60134B74
:1055A0001A60134B9B6810009843FAD12000FFF754
:1055B000A3FF226807235340CF221A4080235B01B8
:1055C00023431A602200243280239B011A430321C3
:1055D000116004341C430223236010BD8022520258
:1055E000DBE7C04600C0034000E0004000F00040A0
:1055F00000C0004000B583B00100044B00930B23B2
:1056000000220348FCF7EBF803B000BD3071001036
:10561000BA16002010B50100024A0348FCF7C6F88C
:1056200010BDC04650710010CB1600200123084A5F
:105630001360084A1360084B9A6801239343FAD118
:10564000064B01221A60054B1B68DB05FBD5704732
:1056500000E0004000F0004000C0004000C00440F6
:1056600010B583070AD00300032102E001330B4287
:1056700005D01A78002AF9D1181A10BD030019684C
:105680000C4A0D4C8A188A4322420FD15968094AA4
:1056900004338A188A43224208D15968054A0433E0
:1056A0008A188A432242F1D000E001331A78002A96
:1056B000FBD1E1E7FFFEFEFE80808080F8B5C046AA
:1056C00001B40248844601BC604700BF510100207C
:1056D00001B40248844601BC604700BF9D01002020
:1056E00001B40248844601BC604700BF9D01002010
:1056F00001B40248844601BC604700BF0901002094
:1057000001B40248844601BC604700BFC1000020CC
:1057100075735F73696E63655F626F6F74203C3D84
:1057200020494E5436345F4D41580000766F69640D
:10573000207570646174655F75735F73696E63650E
:105740005F626F6F74286162736F6C7574655F74EC
:10575000696D655F742A2C2075696E7436345F74C8
:10576000290000002F55736572732F6E69636B619A
:105770006C6C6F74742F7069636F2F7069636F2D19
:1057800073646B2F7372632F636F6D6D6F6E2F7009
:1057900069636F5F626173652F696E636C756465C1
:1057A0002F7069636F2F74797065732E6800000025
:1057B00000800A80278059809E80F6806381E28184
:1057C00076821C83D683A384838576867B879488A0
:1057D000BE89FB8A4A8CAB8D1D8FA1903692DC93DB
:1057E000929559973099179B0E9D149F29A14CA310
:1057F0007EA5BDA70AAA65ACCCAE40B1C0B34CB67D
:10580000E3B885BB32BEE9C0A9C373C646C921CC83
:1058100004CFEFD1E1D4D9D7D8DADCDDE6E0F4E388
:1058200007E71EEA38ED55F074F395F6B8F9DCFC9D
:105830000000240348066B098C0CAB0FC812E2155C
:10584000F9180C1C1A1F2422282527281F2B112E7B
:10585000FC30DF33BA368D39573C173FCE417B449D
:105860001D47B449404CC04E34519B53F6554358E4
:10587000825AB45CD75EEC60F262E964D066A768D5
:105880006E6A246CCA6D5F6FE3705572B6730575EE
:1058900042766C7785788A797D7A5D7B2A7CE47C98
:1058A0008A7D1E7E9D7E0A7F627FA77FD97FF67FDD
:1058B000FF7FF67FD97FA77F627F0A7F9D7E1E7E56
:1058C0008A7DE47C2A7C5D7B7D7A8A7985786C7719
:1058D00042760575B6735572E3705F6FCA6D246CBE
:1058E0006E6AA768D066E964F262EC60D75EB45C69
:1058F000825A4358F6559B533451C04E404CB449DC
:105900001D477B44CE41173F573C8D39BA36DF33B4
:10591000FC30112E1F2B2728282524221A1F0C1C8F
:10592000F918E215C812AB0F8C0C6B09480624035A
:105930000000DCFCB8F995F674F355F038ED1EEA7A
:1059400007E7F4E3E6E0DCDDD8DAD9D7E1D4EFD13C
:1059500004CF21CC46C973C6A9C3E9C032BE85BBFA
:10596000E3B84CB6C0B340B1CCAE65AC0AAABDA793
:105970007EA54CA329A1149F0E9D179B3099599782
:105980009295DC933692A1901D8FAB8D4A8CFB8A49
:10599000BE8994887B8776868385A384D6831C837F
:1059A0007682E2816381F6809E80598027800A801A
:1059B000636861696E5F746F203C3D204E554D5F9A
:1059C000444D415F4348414E4E454C53000000005A
:1059D000766F6964206368616E6E656C5F636F6E7D
:1059E0006669675F7365745F636861696E5F746F32
:1059F00028646D615F6368616E6E656C5F636F6E76
:105A00006669672A2C2075696E7429002F557365A5
:105A100072732F6E69636B616C6C6F74742F706935
:105A2000636F2F7069636F2D73646B2F7372632FB5
:105A30007270325F636F6D6D6F6E2F686172647725
:105A40006172655F646D612F696E636C7564652F4B
:105A500068617264776172652F646D612E68000001
:105A6000D20D0010DE0D0010EA0D0010F60D001032
:105A7000020E00100E0E00101A0E0010260E00105E
:105A80004B65793A204C464F000000004B65793A4F
:105A900020415250000000004B65793A20256420D7
:105AA0006F6E0A004B65793A20506167650000000F
:105AB0004B65793A20507265736574204F4E000033
:105AC0004B65793A20507265736574204F464620C5
:105AD0002D2053686F7274004B65793A20507265BF
