:020000041000EA
:1000000000B5324B212058609868022188439860DF
:10001000D860186158612E4B002199600221596106
:100020000121F02299502B49196001219960352056
:1000300000F044F80222904214D00621196600F024
:1000400034F8196E01211966002018661A6600F04E
:100050002CF8196E196E196E052000F02FF8012189
:100060000842F9D1002199601B49196000215960AB
:100070001A491B48016001219960EB211966A021F2
:10008000196600F012F800219960164914480160C1
:100090000121996001BC002800D000471248134993
:1000A000086003C880F30888084703B5996A0420EC
:1000B0000142FBD001200142F8D103BD02B5186610
:1000C0001866FFF7F2FF186E186E02BD00000240BE
:1000D000000000180000070000035F00212200005C
:1000E000F4000018222000A00001001008ED00E03C
:1000F00000000000000000000000000074B24E7A12
:1001000000200420F7010010C3010010C5010010F9
:10011000C1010010C1010010C1010010C101001097
:10012000C1010010C1010010C1010010C701001081
:10013000C1010010C1010010C9010010CB01001065
:10014000CD010010CD010010CD010010CD01001037
:10015000CD010010CD010010CD010010CD01001027
:10016000CD010010CD010010CD010010CD01001017
:10017000CD010010CD010010CD010010CD01001007
:10018000CD010010CD010010CD010010CD010010F7
:10019000CD010010CD010010CD010010CD010010E7
:1001A000CD010010CD010010CD010010CD010010D7
:1001B000CD010010CD010010CD010010CD010010C7
:1001C00000BE00BE00BE00BE00BE00BE00F04BF888
:1001D000103800BEF2EB887150F0001074F000107F
:1001E0003402001090A31AE700202149086006C8D5
:1001F00081F3088810471F48006800282FD10DA4FC
:100200000ECC002902D000F012F8F9E71A491B4A77
:10021000002000E001C19142FCD1194988471949E9
:1002200088471949884700BEFDE701C901C29A42C3
:10023000FBD3704774F00010C00000208804002039
:100240003CF4001000000420000004203CF40010E6
:1002500000100420001004200000000070470B482C
:1002600004F074F80047EFF30580C0B27047000057
:1002700008ED00E0000000D0000600201417002068
:100280004D2D0010E9050010092D001057560000F3
:1002900006005250ABB3605370EF0010060052508E
:1002A000861C030280EF0010060052505422A29DCB
:1002B0009CEF001005005250DE65F4683CF400101D
:1002C000F8B5C04610B5064C2378002B07D1054B76
:1002D000002B02D0044800E000BF0123237010BDB2
:1002E000401100200000000048580010044B10B5D9
:1002F000002B03D00349044800E000BF10BDC046F6
:1003000000000000441100204858001030B50128BA
:1003100000D030BD154B9942FBD10630144B21E083
:1003200000221A70A52189005980012199809A71B3
:100330001049198100215A81DA601A611975DA822F
:100340001976DA611A625A629A622C2404251D55C4
:10035000002400251C635D6338341955BC215A50B4
:10036000C83301380028DBDAD3E7C046FFFF0000BE
:10037000000A0020FF7F000010B50400C9B21E4B28
:10038000C8224243D15489001C4809589B185980FF
:1003900001229A711A7602F01FF9002920DB25D07C
:1003A000FA229200002304F067F80023C822544385
:1003B000114A141920636363E3612C22A354104B88
:1003C0001B8810485843FA21890004F013F80100F3
:1003D00020620D48636AC01A03F0E4FFA06210BDFA
:1003E0000A4B0B4A3F210B4802F092FCFA2189008C
:1003F00004F000F8D9E7C046000A0020B001002050
:10040000F616002044AC0000FFFFFF004858001023
:10041000645800109C58001010B5C82444430C4880
:1004200004190023A371E3612C330322E254094B26
:100430001B8809485843FA21890003F0DBFF0100BB
:100440002062636A584203F0ADFFA06210BDC0464F
:10045000000A0020EC16002044AC0000F0B583B088
:100460000D001600802800D172E0902828D1002AC3
:1004700000DC6FE0002407E0C82262433E4B9B187B
:100480001B7E002B11D00134072C10DCC8236343E2
:10049000394A9B5CAB42EFD1C8226243364B9B1872
:1004A0001B7E002BE8D064B203E064B201E00124BB
:1004B0006442002C06DB320029002000FFF75CFFBD
:1004C00003B0F0BD02F088F800290CDB11D0FA224D
:1004D0009200002303F0D0FF0190019B00930023C2
:1004E0000120404219E0254B254A3F21254802F0D2
:1004F0000FFCFA21890003F07DFF0190EDE7C8278A
:100500005F431D4AD219116B576B009A002F03D11C
:100510008A4201D9009158B20133072B14DCC82755
:100520005F43154AD2199279002AE8D1C8275F4360
:10053000114AD219116B576B019A002FDFD18A42F1
:10054000DDD901915CB2E7E7002CB4DA0400B2E730
:10055000002402E0002400E00134072CB0DCC823B2
:10056000634305495B5CAB42F6D1320029002000B1
:10057000FFF752FFF0E7C046000A0020485800107D
:10058000645800109C58001010B5FA239B000F4AC5
:1005900013800F4A642111800E4A0F4911800F4ABF
:1005A00013800F4B08221A7000220BE00D4CC82359
:1005B0005343E118084888800020185548800023DC
:1005C0000B760132072AF1DD10BDC046F616002079
:1005D000F4160020F2160020FF7F0000EC16002029
:1005E0000A170020000A002010B501F06BF8174828
:1005F00000F05EFAFFF7C8FF01F02EF906E0144B99
:1006000000221A70134A137801331370104B1B78B1
:10061000002B17D001F02CF901F050F90E4A138885
:10062000C018801010800024FF2CE8DC00F044F893
:1006300080231B029C46604400116300074AD0528D
:100640000134F1E701F05CF8DCE7C04644AC00009F
:100650000C1700200E170020EE160020B01200200C
:1006600010B502490120FFF751FE10BDFFFF000049
:10067000044A106843034340580C43405801584013
:1006800010607047B003002010B5FFF7F1FF0400C1
:10069000FFF7EEFF02002004000C13041B0CC0182F
:1006A000240C0019120C80184008024B9C46604430
:1006B00010BDC0460100FFFFF8B5CE46474680B5E5
:1006C000994B1F88994B1B88FF18BBB29846002591
:1006D0000023994691E00023E3612C330122E25488
:1006E000934B1B8893485843FA21890003F082FEFC
:1006F00001002062904B1B881B02626A981A03F06B
:1007000051FEA062A0E0C8226A438C4B9B180022D5
:10071000DA6119002C31022008701A629A6293E0A3
:100720008648C8216943431800221A760A545A8021
:100730000020002118635963DA6119002C3104305C
:1007400008701A629A627FE0FFF79EFFC8226A4330
:100750007A4B9B18588187E0C8206843774909186D
:100760000A27CF5F012693E0754958184000754964
:10077000091A7F189EE072497F180136F6B21107F8
:1007800007D51B0A43445B006F495B5EFF180136C7
:10079000F6B2D30716D56948C8226A4382183832A0
:1007A000117864236B435B181C335B00C318022071
:1007B0001B5EFF180131C9B21170402900D188E0D9
:1007C0000136F6B23100380003F0ECFDC117C82441
:1007D0006C435A4B1C19636A1A0A002304F04EFC3E
:1007E0000904000C0843C117A288002304F046FC4A
:1007F0000904000C084381440135072D79DCC82425
:100800006C434E4BE4186388504A1088584340129A
:100810000004484903F0EEFDE3689C466044E06054
:1008200023002C3319780429E6D0E269236A9A421E
:100830000AD3022908D0012900D164E7032900D195
:100840006EE7002900D146E7C8226A433B4B9B185C
:100850005A6A996A8C4662445A62DA690132DA61EC
:10086000DB68DB0300D56FE7C8236B43334AD2183C
:10087000D3681B041B0CD360127E002ABCD0344901
:100880000A78097849B2002900DA65E700270026CE
:10089000910604D52A4959187F180136F6B2D106B7
:1008A0000AD52C498B4200D95EE75900244884467A
:1008B00061447F180136F6B2510600D45FE7C820C4
:1008C00068431E49091809898B4200D353E71D4923
:1008D00052E7C8226A43194B9B181A00383200218C
:1008E0001170C0331B68002B00D169E720009847C6
:1008F00066E74B46D917184B1A880023484604F080
:10090000BDFB030008041B0C18430D4B984205DB8C
:1009100080231B02984202DB0A4800E00F4800B225
:10092000C0BCB946B046F8BDF0160020EE16002057
:10093000F416002044AC0000F2160020000A00204B
:100940000180FFFFFF7F0000E8580010FC16002028
:100950000A170020FE7F0000B40300200080FFFF84
:1009600070B5224B0C2834D8214C2340C4022343B9
:100970000C25AB43082423431E4C23401E4E33401A
:100980001E4E3340012633431D4E33400226B343EF
:10099000AB43083D2B430C352B4323409024A4004C
:1009A0002343184C1C40EC235B0323430C2916D82B
:1009B0000F4C2340C9020B438001A021C9058C467E
:1009C00060440260104A42608022520082600361EB
:1009D00070BD0E4B0E4AC4210E4802F099F90B4B24
:1009E0000B4AC4210B4802F093F9C04610801F0047
:1009F000FF87FFFF3FF8FFFFFFFFBFFFFFFFDFFFA6
:100A0000FFFF7FFFFF7FE0FF08000440E498001035
:100A1000049900104099001070B5012004F086FE82
:100A20001C4D2860012004F081FE01001A4E306048
:100A30001A4A2868FFF794FF194A29683068FFF7B7
:100A40008FFF18490B2001F0AFF8012423002A681A
:100A500093403268210091400B43134A13600121F7
:100A60000B2001F091F8002004F070FE0F4B186885
:100A700004F044FB83B2802040021843A023DB052E
:100A80008422D20098502A6894408622D2009C503A
:100A900070BDC0465C1100206011002000060020DF
:100AA00000080020550B001004240050681100209D
:100AB00070B50400144D1549280004F003FE2B689E
:100AC0000F225A40CF231340802040012843036067
:100AD00001210B2000F0FEFE01210A2000F0FAFEA9
:100AE0000121092000F0F6FE052002F0C5FA084BAE
:100AF0001860210003F07EFC04F0D9FA054B186061
:100B0000FFF78AFF70BDC0460000044080A81201B4
:100B1000641100206811002010B5040000220CE0D0
:100B200053000949585A09490880E31800211980DF
:100B3000E021C901014319800132FF2AF0DD044B95
:100B400001221A7010BDC046B0120020F816002015
:100B50000C17002010B5A022D2058023DB00D2584C
:100B6000114B196801238B4013420BD1A022D205EF
:100B70008023DB00D2580D4B196801238B401342B0
:100B800009D110BDA021C905094A8B501921094876
:100B9000FFF7C2FFEAE7A021C905054A8B501921DA
:100BA0000548FFF7B9FFECE75C1100206011002059
:100BB0000C040000000600200008002010B504000E
:100BC0000C2000F0E1FE0D2000F0DEFE0E2000F013
:100BD000DBFE0F2000F0D8FED0231B06802252013E
:100BE0005A62802292015A628022D2015A62802285
:100BF00012025A6200210C2000F09EFE00210D20FE
:100C000000F09AFE00210E2000F096FE00210F2039
:100C100000F092FE1F211A2000F05CFE002200214D
:100C20001A2000F06FFE00211A2000F095FE04F05B
:100C300099FD054B1B68E022D2011340034A136063
:100C40000023A37210BDC04600C0044000D0044081
:100C5000D0231B06802212045A61837ADB0700D45A
:100C60006AE0D0231B06802252015A61837A9B07D7
:100C700000D467E0D0231B06802292015A61837A58
:100C80005B0700D464E0D0231B068022D2015A61A6
:100C9000837A1B0700D461E0D0231B068022120256
:100CA0005A61C046C046C046C046C046C046C0465F
:100CB000C046C046C046C046C046C046C046C04604
:100CC000C046C046C046C046C046C046C046C046F4
:100CD000C046C046837A02339B00C3185B6819097B
:100CE000591A214B04221A60204B1B68DB05FBD5E7
:100CF0001E4B5B68827A1B041B0C5B18911C8900DD
:100D000041184B601B09510041184B8001320323ED
:100D10001A408272D0231B06802212049A6180221C
:100D200052019A61802292019A618022D2019A61D5
:100D3000802212029A617047D0231B068022520142
:100D40009A6193E7D0231B06802292019A6196E76D
:100D5000D0231B068022D2019A6199E7D0231B067B
:100D6000802212029A619CE700E0044000C0044027
:100D7000F0B5C64600B50C2000F006FE0D2000F0D0
:100D800003FE0E2000F000FE0F2000F0FDFDD02439
:100D9000240680235B01984663628027BF01676257
:100DA0008026F601666280252D02656200210C20F6
:100DB00000F0C2FD00210D2000F0BEFD00210E203C
:100DC00000F0BAFD00210F2000F0B6FD102000F069
:100DD000DBFD112000F0D8FD80235B02A36280239D
:100DE0009B02A36200220121102000F08BFD002253
:100DF0000121112000F086FD434663616761666151
:100E00006561022000F0C0FD0423636280BCB84627
:100E1000F0BDF0B52923C35C9B0000221A50D023FB
:100E20001B06802252019A61802292019A618022DF
:100E3000D2019A61802212029A61002361E0D022DD
:100E400012068021490191617FE0D02212068021A3
:100E5000890191619AE0D02212068021C901916135
:100E6000B5E0D0221206802109029161C046C04639
:100E7000C046C046C046C046C046C046C046C04642
:100E8000C046C046C046C046C046C046C046C04632
:100E9000C046C046C046C046C046C046C046D02632
:100EA00036067268120C01210A409A402925445DD9
:100EB000A40027583A432250C046C046C046C04608
:100EC000C046C046C046C046C046C046C046C046F2
:100ED000C046C046C046C046C046C046C046C046E2
:100EE000C046C046C046C046C0467268520C11405B
:100EF0001A0010329140425D920014582143115063
:100F000001330F2B00DD84E0C046C046C046C0461A
:100F1000C046C046C046C046C046C046C046C046A1
:100F2000C046C046C046C046C046C046C046C04691
:100F3000C046C046C046C046C046DA0700D47EE779
:100F4000D0221206802149015161C046C046C046E8
:100F5000C046C046C046C046C046C046C046C04661
:100F6000C046C046C046C046C046C046C046C04651
:100F7000C046C046C046C046C046C0469A0700D4D8
:100F800063E7D0221206802189015161C046C04624
:100F9000C046C046C046C046C046C046C046C04621
:100FA000C046C046C046C046C046C046C046C04611
:100FB000C046C046C046C046C046C046C0465A07A6
:100FC00000D448E7D02212068021C9015161C046F1
:100FD000C046C046C046C046C046C046C046C046E1
:100FE000C046C046C046C046C046C046C046C046D1
:100FF000C046C046C046C046C046C046C046C046C1
:101000001A0700D42DE7D02212068021090251616F
:101010002CE72922835C9C0001212558294321507B
:101020000133DBB2835407210B40835403684268C9
:10103000934200D0F0BD82689342FBD1C2689342D4
:10104000F8D102699342F5D142699342F2D18269A3
:101050009342EFD1C2699342ECD10022110000E02B
:1010600001321F2A08DC012494401C42F8D080245D
:101070002406D4402143F3E70162DBE730B50128C1
:1010800000D030BD094B9942FBD10949094B0A00F8
:1010900031CB31C231CB31C211CB11C201235B4202
:1010A0000B624B6229330022CA54EAE7FFFF0000BB
:1010B00084120020D09900104000014BC05A7047A4
:1010C000F0990010D0231B06802252039A6100235E
:1010D0000BE0D02212068021C9029161D0221206B3
:1010E00080210903516191610133072B09DC020062
:1010F0001A41D207EDD5D02212068021C9025161D2
:10110000ECE7D0231B06802252035A61704700008F
:1011100010B507231B1A012098400300034A1078DA
:101120005840C0B21070FFF7CDFF10BDB6030020CD
:1011300010B5034B00221A700020FFF7C3FF10BD4B
:10114000B603002010B5122000F01EFC132000F0A2
:101150001BFC142000F018FCD0231B068022D202B6
:101160005A62802212035A62802252035A62FFF7A7
:10117000DFFF10BD10B50400042100F0ABFB6208D6
:1011800007231A4093009B189B000D498C4663442B
:10119000E10712D50B4819680840802149010B432B
:1011A000186093009B189B00074A94466344186894
:1011B000012282430B431A6010BD0448EBE7C0468E
:1011C0000C0005400000FFFF00000540FFFF00008D
:1011D000074B1A680C2319009143064A1160064A0E
:1011E000126804214A401340044A13607047C04605
:1011F0003C0005403C1005405000054050100540A3
:10120000084A135C01214B40DBB213540122824097
:10121000002B03D0D0231B065A617047D0231B0636
:101220009A61FAE7CC11002010B5192000F0ACFB50
:10123000D024240680239B046362152000F0A4FBC5
:1012400080239B036362162000F09EFB8023DB0358
:1012500063620620FFF78EFF0720FFF78BFF082051
:10126000FFF788FFFFF7B4FFFFF76CFF10BD00002A
:1012700010B50E4B01241C70000280B20C4C236888
:1012800058400004000C0B4B1860090620684140D0
:10129000090C09041960120292B2074B1B685A40EC
:1012A0001204120C054B1A6010BDC046091700202D
:1012B00048000540481005405C0005405C100540B2
:1012C00010B5072808D88000194B1B589F460022EC
:1012D0000021FF20FFF7CCFF10BDB52200214A20DE
:1012E000FFF7C6FFF8E723220021FF20FFF7C0FF2A
:1012F000F2E7962273210020FFF7BAFFECE7FF2206
:1013000000210A20FFF7B4FFE6E700222721FF2093
:10131000FFF7AEFFE0E70022FF210F20FFF7A8FF55
:10132000DAE75A226421FF20FFF7A2FFD4E7C04684
:101330009499001010B50020FFF7C2FF10BD000007
:10134000064B0A221A610A325A6105499961C8217D
:10135000D9611A625A629A62DA6270478411002077
:10136000FF03000010B500230BE05900074A521894
:101370000220105E9900064A8850064A0121D15485
:101380000133032BF1DDFFF7DBFF10BDE41100207B
:101390007411002070110020800040188000024B62
:1013A000C05880087047C0468411002010B502283C
:1013B0001DD00AD8002814D0012817D1114B0122C2
:1013C0001A700420FFF7A4FE10E003280ED10D4B85
:1013D00003221A700520FFF79BFE0620FFF798FEF8
:1013E00004E0084B00221A70FFF7A2FE10BD054B67
:1013F00002221A700420FFF78BFE0520FFF788FEFB
:10140000F4E7C04603170020431E9841014B1870B3
:101410007047C04608170020014B18787047C04637
:101420000817002010B51520FFF7EAFE024A1378CE
:1014300001214B40137010BD0717002010B5044A5E
:10144000137801214B4013701620FFF7D9FE10BD11
:1014500006170020F8B5494B1E6A5F6A002407E0B2
:10146000210030317E329020FEF7F8FF0DE001348C
:101470001A2C17DC01223300E34015001D401A42EC
:1014800003D13B00E340DB07EAD4002DEFD03B0063
:10149000E340DB07EBD42100303100228020FEF74F
:1014A000DDFFE4E7330101D43B0116D4F30001D49E
:1014B000FB0016D4B30001D4BB0015D48023DB0598
:1014C00034001C401E4201D17B0010D4002C01D0FE
:1014D0007B0024D5294B5E62F8BD0120FFF794FF05
:1014E000E4E7FFF79FFFE5E7FFF7A8FFE6E701F076
:1014F00073F8002908DB0DD0FA229200002302F0D5
:10150000BBFF1F4B1860E1E71E4B1F4A3F211F48DE
:1015100001F0FEFBFA21890002F06CFFF1E701F017
:101520005BF800291FDB24D0FA229200002302F08E
:10153000A3FF174B1860124B1B68C01AC8235B002F
:101540009842C7D2134C903BFF3B2370124A10784D
:101550000130C0B21070063318401070FFF7B0FEB3
:1015600000232370B6E7074B074A3F21074801F0E5
:10157000CFFBFA21890002F03DFFDAE78412002058
:10158000C411002048580010645800109C580010E6
:101590006C1100200017002004170020014B187860
:1015A0007047C0460617002010B5FFF735FF00282A
:1015B0001BD03A4B01221A70394B1C780134E4B22B
:1015C0001C70FFF7EBFF031E00D00420002B00D19E
:1015D0000320844202D3324B00221A70304B187819
:1015E000FFF7E4FE0020FFF70FFF2C4B1B78002BCA
:1015F00001D1002419E0294B00221A70294B1A78D6
:101600000F2010401870FFF75DFD0023032BF0DC66
:10161000254AFF21D1540133F8E7A30023495A504A
:10162000214B1B5D012B1ED00134032C31DC6200E9
:101630001F4B9B1802229A5E1E4B1A60184B1B7898
:101640009B001B199B001C495958511A0023042068
:1016500088425B41DBB219490B70002BDDD0124B85
:1016600001211955D9E706331B1B012098400300BF
:101670000C4A10781843C0B21070FFF723FD084BD6
:101680001B789B001B199B000A4A11680A4A995053
:10169000CAE70B4B01221A7010BDC046FF1600208E
:1016A00001170020B60300207011002074110020E3
:1016B000E4110020C811002084110020051700202B
:1016C0000217002010B503F017FFFFF7ADFDFFF77D
:1016D00031FE0748FFF74CFB0648FFF76FFAFFF7AC
:1016E00041FE054803F0CAFE044B00221A7010BDEB
:1016F00084120020E4110020B49900100E1700207D
:1017000010B5384B1B78002B5ED0364B1B783F2B27
:101710005ED0344B1B787F2B5DD0324B1B78BF2BB8
:101720005DD000210020FFF737FE800900022E4B1C
:10173000188001210020FFF72FFE80002B4B18801E
:1017400003210020FFF728FEFFF7B6FC284B188086
:1017500000210120FFF720FE0A3080B28000254BD7
:10176000188001210120FFF717FE0A3080B28000A7
:10177000214B188002210120FFF70EFE80011F4B34
:10178000188003210120FFF707FE80001C4B188002
:1017900000210220FFF700FE800AC0B200F056F8D8
:1017A00001210220FFF7F8FD00F03EF8022102209F
:1017B000FFF7F2FD00F032F803210220FFF7ECFD05
:1017C000800900F03DF810BD0E48FFF722FB9CE7B2
:1017D000FFF740FE9DE70C48FFF73AFA9DE7FFF759
:1017E000E3FE9EE70E170020F0160020EE16002004
:1017F000FC160020F6160020F4160020F216002039
:10180000EC16002084120020E411002010B50249DB
:101810000120FFF733FC10BDFFFF0000014B1880D3
:101820007047C046E616002010B50004FF2102F004
:10183000B9FD801180B2014B188010BDE216002066
:101840000002014B18807047E4160020014B18700D
:101850007047C046FE16002010B50020FFF7DEFFDF
:101860000020FFF7E1FF0020FFF7EAFF10BD0000B6
:101870000B4B1B880B4A11885B189BB213801B0A09
:10188000094A1380094A1288D3185B00084A9A5EF5
:10189000084B1B8853431B12074A13807047C046EE
:1018A000E2160020E0160020E8160020E4160020D2
:1018B000F0A10010E6160020EA160020034B18885D
:1018C000034B9C46604480B27047C046EA16002035
:1018D0000080FFFF10B58300084A944663441C68EB
:1018E00040226240C02414408022520113431C60F5
:1018F000C000034B9C466044416010BD04C00140E1
:101900000040014080000B4B9C46604400290DD0F4
:101910000823002A0CD004221343026853400C22EF
:101920001340802252011043036070470023F0E708
:101930000022F1E704C001408000064B9C46604451
:1019400003684B400121194080235B01184301606B
:101950007047C04604C00140002909D08000094BEF
:101960009C46604480239B011843402303607047DA
:101970008000044B9C466044C0239B0118434023D5
:101980000360F4E704C0014010B501238340D02276
:101990001206936293610521FFF79CFF10BD0000C2
:1019A000EFF3108072B6034B1B68002BFBD0BFF324
:1019B0005F8F70472C0100D0BFF35F8F024B002276
:1019C0001A6080F3108870472C0100D0F8B506002B
:1019D0000C001500FFF7E4FFE308F718F15C07229D
:1019E0002240012393400B4205D1DBB20B433B70F5
:1019F000FFF7E2FFF8BD2100280001F023FAF0B55F
:101A000083B00600019114001F00FFF7C9FF00E03A
:101A10000134BC420CD8E308F518F35C07212140DF
:101A200001228A401A42F3D1D2B21A432A7001E04D
:101A300001246442FFF7C0FF002C02DB200003B04A
:101A4000F0BD019B002BF9D0089801F0FBF90000D4
:101A5000034B1B6802201840431E9841C0B27047D8
:101A600000C00640002307E0054A9A189200BFF321
:101A70005F8F0021116001331F2BF5D97047C046DD
:101A800040000034054A1078431CDBB21370172B5A
:101A900002D9130010221A707047C046B703002005
:101AA000074B9B68103080001950BFF35F8FBFF366
:101AB0005F8F044B0021196082F310887047C04685
:101AC00000ED00E0240100D010B5091A081F0A4BF0
:101AD0009C466144094A914208D8C30706D4401085
:101AE0004005400D064B184380B210BD054B064A19
:101AF0009921064801F00CF9FC070000FE0F0000D8
:101B000000E0FFFFECE1001034E400101CE20010E4
:101B100010B5091A04394C08090B08D14905490DBB
:101B2000064A11430180064B2343438010BD054BF9
:101B3000054AA121054801F0EBF8C04600F0FFFF7F
:101B400000F8FFFF60E2001008E400101CE2001043
:101B500001238340034A10681840431E9841C0B2D5
:101B60007047C04600E100E0002904D0034B186034
:101B7000034B18607047034B1860FBE780E200E0FE
:101B800000E100E080E100E010B50123834018008F
:101B9000FFF7EAFF10BD0000024B9B681030800089
:101BA000C058704700ED00E070B504000D00EFF381
:101BB000108672B60C4B1B68002BFBD0BFF35F8FF7
:101BC0002000FFF7E9FF094B984201D0A84205D158
:101BD000320029002000FFF763FF70BD044B054A67
:101BE0007C21054801F094F8240100D0CD010010BB
:101BF00070E2001050E400101CE20010F0B5CE4678
:101C0000474680B583B006000D00EFF3108872B62A
:101C1000564B1B68002BFBD0BFF35F8F544B9A6869
:101C200034001034A300D758524B9F4207D0AF4224
:101C300000D199E00197504BFB1A2F2B09D942464E
:101C400039003000FFF72CFF03B0C0BCB946B046E6
:101C5000F0BD3000FFF77CFF814600213000FFF728
:101C600093FFBFF35F8FFEF7FEFA002801D0844296
:101C700011D10123019C9C430022A368AB4212D0E6
:101C80000622A256002A0DDB53009B189B0022005F
:101C9000394CE418F1E72C21384B394AFF313948E7
:101CA00001F036F82200AB4257D106256557002DCA
:101CB00039DB6B005B199A002F4B9B189A68A26066
:101CC000DA79E27106229A56A2719B795BB2002BF7
:101CD00010DABD200002A0806B005B199B00264A31
:101CE000D318294A11789971157049463000FFF7C9
:101CF0004BFFA4E7201D6B005B199B001E4A9B183D
:101D00001A1D9B88D90A1C2907D15B055B15023374
:101D100059005118FFF7D8FEDDE71C4B1C4AA721DC
:101D2000184800F0F5FF002812D1002A0ED0FF233A
:101D30009371184B9380144A1378A371164B0E4974
:101D4000641A644163431B0D1370CEE7094FF2E739
:101D5000201D1249FFF7DCFEC7E76021104B084A3F
:101D6000FF31084800F0D4FF024F68E7240100D09B
:101D700000ED00E0CD010010B803002084E3001066
:101D800020E400101CE200100F1700206CE300108C
:101D900040E4001000BDFFFFAAAA0000F2030020EB
:101DA000A8E3001070B50400012606432D4BF31A7A
:101DB0002F2B28D8FEF757FA00282BD0EFF3108CE2
:101DC00072B6294B1B68002BFBD0BFF35F8F274DEA
:101DD00022002449521A524155432D0D6DB2244B15
:101DE0009B6880001B58B3421BD00022032A32D8C4
:101DF00053009B189B001B49CB189B795BB2AB42ED
:101E00001FD00132F2E7C2211A4B1B4A49001B487E
:101E100000F07EFF88211A4B174AFF31174800F067
:101E200077FF134B9B68174A1A50174B1A78A27109
:101E30001D70BFF35F8F0C4B00221A608CF310886B
:101E400070BD08005300991889004118FF268E7153
:101E50000E4A8A80E9E7CC210D4B074A4900074822
:101E600000F056FFB8030020240100D0AAAA000009
:101E700000ED00E0B0E30010ECE300101CE2001005
:101E8000D8E30010CD0100100F17002000BDFFFFA8
:101E9000E4E300100022044B02E0044902C30132D3
:101EA000072AFAD97047C04600E400E080808080AD
:101EB000024B9C4661448900016070474000003439
:101EC00070B505000C00080000F07AFB200000F05F
:101ED0004BFC0849200000F08BFBFFF7D3FD064BBD
:101EE0009C466044800068602C75A400034BE5505C
:101EF00070BDC046D521001040000034B014002051
:101F000010B5002922D003681B7B99421ED8174BBD
:101F10009C466144090183689C4661440C68496899
:101F2000002A19D003681B7B9A4215D883680F4892
:101F30008446624412019A18106853680200012016
:101F40008B4201D80ED00020C0B210BD084B094A08
:101F50003B21094800F0DCFE054B064A3B210648C0
:101F600000F0D6FEA242EFD8EDE7C046FFFFFF0F1C
:101F7000BCE400106CE6001080E4001010B50029ED
:101F80001ED0037B99421BD84B005B18033B0468AF
:101F9000A4466344002919D0002A1DD0914221D0C3
:101FA000002A25D0047BA24222D804685000801861
:101FB000033820188170197800291FD11A7010BDBC
:101FC000104B114A6821114800F0A2FE104B114A33
:101FD0006F310E4800F09CFE0F4B0E4A70210B48EB
:101FE00000F096FE0D4B0B4A7121084800F090FE60
:101FF000044B054A6821054800F08AFE41701A70BA
:10200000DDE7C046F0E40010C0E600100CE500106B
:102010005CE500109CE6001068E5001074E5001017
:1020200070B506000D001400002914D0002A14D049
:10203000806873689847002806D022002900300085
:10204000FFF79CFF280007E02A0021003000FFF77F
:1020500095FF200000E0100070BD0800FCE70000C4
:10206000F0B583B00500009201930AAB1C780BAB6E
:102070001F78002C26D003685A7B944207D1012395
:10208000002B19D1002C3BD1200003B0F0BD002C57
:102090000CD01A7B944209D81A6863001B19033BC1
:1020A000D3189B78002BEBD00123E9E73E4B3F4A46
:1020B00068213F4800F02CFE3E4B3F4A65213F48D7
:1020C00000F026FE03689C7B002CDBD012D01A7B2C
:1020D00094420FD862001219033A19688C46624480
:1020E00051789973002900D1D973002393705370EC
:1020F0001370C7E72C4B2D4A68212D4800F008FECD
:10210000002C3AD02B681B7B9C4236D82C4BE31812
:102110001B01AA6894466344009A1A60019A5A60A7
:10212000089A9A60099ADA602E68002C2BD030D079
:10213000337B9C422DD863001B19033B32689446C5
:10214000634400229A705A701A70717B220030002A
:10215000FFF766FF7073844200D095E7287D009AF0
:10216000019B00F08DFA061E01D0002F17D00C9BAA
:10217000002B00D188E71E7086E7124B124A3B21E4
:102180000E4800F0C5FD114B114AA521084800F08A
:10219000BFFD054B054A6821054800F0B9FD2868D8
:1021A000210000F095FCE2E7F0E40010C0E600102A
:1021B0000CE500108CE50010CCE6001080E4001067
:1021C000FFFFFF0FBCE400106CE600107CE4001081
:1021D000B0E60010F0B5DE4657464E464546E0B53F
:1021E0008BB00990002308938200B24BD658370079
:1021F00032E0B14BB14A3F21B14800F089FDB14B0B
:10220000B14A3B21B14800F083FDB14BB14A8C216A
:10221000AE4800F07DFDB04BAE4A9021AB4800F0D7
:1022200077FDA84BAD4A4021A84800F071FD2A680F
:102230006B68099800F024FA00239A4698467B6858
:10224000BFF35F8F00221A6086F310884346002B8D
:1022500051D1002800D126E100F0BEF902000B1E8A
:10226000C7DB00200021069007917868EFF3108605
:1022700072B601680029FCD0BFF35F8F39688846C9
:102280004C7B002C32D0BAD0097B8C42B7D8944911
:1022900065182D01B9688C46654428686968801AFC
:1022A00099410029C3DC01D10028C0D1002140465A
:1022B00000F004FCA042A8D12A686B68069207933C
:1022C000AB689846EB689A464346002BA3D0002C97
:1022D000A7D03B681B7B9C42A3D8631EFA68D35CE3
:1022E00008931B02184338610020A8E700239A4690
:1022F00098460020A3E7089B1B02234399465146BA
:102300001800C04705000E007A68EFF3108B72B614
:10231000136859424B41D9B2002BF9D1BFF35F8FFB
:10232000002E26DB002E52DD3B69002B53D04B459F
:1023300072D100F051F902000B1E73DB010018008E
:1023400052197341984202D804D1914202D9012214
:102350005242D317002B6BDB002104910131039112
:10236000029451460191414600913800FFF778FEF2
:1023700049E03B69002BD5D04B451CD1069A079B01
:1023800010001900521BB341994202D804D1904267
:1023900002D901225242D317002B12DB00210491F3
:1023A0000131039102945146019141460091380058
:1023B000FFF756FE27E04B4B464A9F21434800F06B
:1023C000A7FC3D4B3D4A3F213D4800F0A1FC002EBB
:1023D00001D1002DA8D13A68002C45D0537B9C42F6
:1023E0002CD1012100293FD1D37B002B42D1D473C2
:1023F000002C52D03B681B7B9C424ED8FA68013CB3
:10240000135D0133135500233B617A68BFF35F8F7F
:1024100013608BF310881FE7324B2E4AA2212B4802
:1024200000F076FC244B254A3F21254800F070FC43
:10243000214B224A3F21224800F06AFC002C0DD09B
:10244000137B9C420AD863001B19033B1068844627
:1024500063449B78002BC5D00121C3E7224B234A5C
:102460006821234800F054FC224B234AF6212048DF
:1024700000F04EFC002B0AD0117B8B4207D859008C
:10248000CB18033B11688C4663445C70AFE7164B76
:10249000164A6821164800F03BFC0A4B0F4A4021BF
:1024A0000A4800F035FC0BB0F0BCBB46B246A9466A
:1024B000A046F0BDB01400204858001038E60010C7
:1024C0009C580010BCE400106CE6001080E4001082
:1024D000B4E5001050E60010CCE5001078E60010DE
:1024E000FFFFFF0FD8E50010F0E40010C0E6001079
:1024F0000CE5001014E600108CE6001010B50A4B35
:102500005B68002B04D00A210848FFF7D1FC10BDFE
:10251000054C2300064A1021206800F0EFF9032142
:102520002000FFF7CDFCEEE700040020C4160020D9
:10253000011F001070B5EFF305833F2018401038DD
:10254000EFF3108C72B6194B1B68002BFBD0BFF356
:102550005F8F012319008140154A5163154A127893
:102560001400C440234214D0114B5C6A8300124D06
:102570005B599C4206D38300104C1B598A430D497A
:102580000A7007E00A4A031D9B00995899500023DE
:1025900000E00023BFF35F8F044A002111608CF339
:1025A0001088002B00D0984770BDC046280100D08D
:1025B0000040054010170020C8160020041200201B
:1025C00010B50100024A0348FFF700FA10BDC046EB
:1025D000E4E600100D170020044B5B6A034A906A82
:1025E0001900536A9942F9D17047C046004005402E
:1025F00070B504000D00EFF3108672B61B4B1B681C
:10260000002BFBD0BFF35F8F002D1CD02000FFF705
:10261000C3FA174B83420BD019002000FFF7C4FA0E
:1026200001212000FFF7B0FA0123A340114A1360F3
:10263000A400114BE550BFF35F8F0C4B00221A60D2
:1026400086F3108870BDA2000B4B0021D1500122EF
:10265000A2400A490B7893430B7005492000FFF70D
:10266000CDFA00212000FFF78FFAE4E7280100D01F
:102670003525001038600540041200201017002096
:10268000F0B5DE4600B584B00400150001921E00CE
:102690000293FFF7A1FF03958E4202D84ED18542E7
:1026A0004CD9EFF3108B72B6274B1B68002BFBD075
:1026B000BFF35F8F254A17780125A540EBB23B4356
:1026C0001370234B5D63221D92000199D150A2002B
:1026D0002049029850501B6A2B4212D11C4B1B6C94
:1026E0002B4208D00020BFF35F8F174B00221A60E7
:1026F0008BF3108823E0184B184AC121184800F0CA
:1027000007FBFFF769FF8E4214D802D1039B834277
:1027100010D80E4B1B78BB420ED00D4B1D625D6373
:102720001F2004400123A3400E4A1360074B1F7073
:102730001E38D8E70020D6E70120D4E7012004B0F6
:1027400080BCBB46F0BDC046280100D01017002059
:1027500000400540C816002008E7001074E700108C
:102760002CE7001080E200E0EFF3108C72B60B4B08
:102770001B68002BFBD0BFF35F8F01238340084A07
:10278000136208490A789A430A70BFF35F8F034BBC
:1027900000221A608CF310887047C046280100D0D0
:1027A000004005401017002010B500291ED0037B03
:1027B00099421BD84B005B18033B0468A446634452
:1027C000002919D0002A1DD0914221D0002A25D0FD
:1027D000047BA24222D804685000801803382018D5
:1027E0008170197800291FD11A7010BD104B114A41
:1027F0006821114800F08CFA104B114A6F310E48D5
:1028000000F086FA0F4B0E4A70210B4800F080FA58
:102810000D4B0B4A7121084800F07AFA044B054A27
:102820006821054800F074FA41701A70DDE7C0466F
:10283000F0E4001084E800100CE500105CE50010E6
:1028400070E8001068E5001074E5001070B506002F
:102850000D001400002914D0002A14D08068736879
:102860009847002806D0220029003000FFF79CFF7F
:10287000280007E02A0021003000FFF795FF200024
:1028800000E0100070BD0800FCE7000010B5002358
:10289000437301338373037BC3730123027B9A4227
:1028A00014D9002B0CD0027B934209D85A00D218BD
:1028B000033A01688C4662440133DBB25370EDE7A2
:1028C0000B4B0C4A68210C4800F022FA002A09D070
:1028D000924207D8016853009A18033A8A180023D5
:1028E000537010BD024B034A6821034800F010FAF0
:1028F000F0E4001084E800100CE5001010B501733E
:1029000042608360FFF7C2FF10BD000070B5040095
:10291000081E00D170BD002934D0237B994231D8E4
:102920004B005B18033B2268944663445A78002AA4
:10293000F0D02DD0237B9A422AD853009B18033B1A
:1029400021688C4663445D7800215970002825D0A9
:10295000237B984222D843001B18033B21688C46F6
:1029600063440021597001002000FFF76FFF06004B
:1029700029002000FFF7CAFF020031002000FFF706
:1029800065FFC7E7084B094A6821094800F0C0F90C
:10299000054B064A6821064800F0BAF9024B034A83
:1029A0006821034800F0B4F9F0E4001084E8001056
:1029B0000CE5001070B505000C001600002928D0A9
:1029C0002DD0037B99422AD84B005B18033B026849
:1029D000944663445A78002A27D19A78002A2AD14B
:1029E0001978FFF793FF0300002E03D0EA7B002A3B
:1029F00027D1EC73002B37D1002C49D02B7B9C4284
:102A000046D82B6861000C19033C1C190023637025
:102A100070BD224B224A3821224800F079F9224B1E
:102A2000224A6821224800F073F9224B1C4A3A21BD
:102A30001C4800F06DF9204B194A3B21194800F061
:102A400067F9002A0AD0297B8A4207D851008A18E0
:102A5000033A29688C4662445470CAE7124B134A01
:102A60006821134800F054F9002B0BD02A7B9342C5
:102A700008D843001B18033B2A689446634400228D
:102A80009A70B9E7084B094A6821094800F040F9F3
:102A9000054B064A6821064800F03AF990E7001015
:102AA0005CE8001098E70010F0E4001084E80010E3
:102AB0000CE50010D8E7001000E8001070B5040025
:102AC0000A00457B2900FFF775FF6073280070BD81
:102AD00070B50400002967D0437B8B420ED00029DB
:102AE00011D0037B99420ED84B005B18033B026860
:102AF000D0188378002B0CD1002056E00121FFF77D
:102B0000DDFF012051E0294B294A6821294800F0C6
:102B1000FFF8002B20D0227B93421DD85A00D318F7
:102B2000033B2268D2182568EB5C8B421AD0002B3D
:102B30001BD0227B934218D85A00D318033B22683B
:102B4000D21853788B4216D0002BF0D11A4B1B4A67
:102B500067211B4800F0DCF8144B154A6821154822
:102B600000F0D6F84378137007E0104B104A682144
:102B7000104800F0CDF84378537000238370437001
:102B800001222000FFF716FF0200617B814205D081
:102B90002000FFF75BFE6073012006E0094B074A47
:102BA0006D21074800F0B4F8002070BDF0E400107B
:102BB00084E800100CE50010E4E3001044E8001085
:102BC00098E7001024E8001010B50400FEF75AFF43
:102BD00001002000FFF76CF9FF232371BFF35F8F23
:102BE00010BD10B50400FEF74DFF01002000FFF7F7
:102BF0005FF9FF23237100236371BFF35F8F10BD63
:102C000070B504000D00062000F036FAC00029005F
:102C100001F0F0FBC60908D00E4B9E4217D87F2367
:102C2000184001303500460800E001256562A662C3
:102C30002C3480208001044300232360062000F010
:102C40001BFA8000A901891901F0D4FB70BD002690
:102C5000014DEBE7FEFF0000FFFF0000002909D057
:102C60000A22064B9C466044434258414000044BB4
:102C7000C252704780225200F3E7C0460080FCBF7A
:102C8000D816002070B505000C00062000F0F4F9FD
:102C9000002829D0164B9D4227D08022D203154B05
:102CA0001A60154B1A60154B9B6811009943FAD1B5
:102CB00000212800FFF7D2FF21002800FFF7A0FF26
:102CC0002C002C34E96A60224A406E211140802297
:102CD0005201224311600A4B2B6380239B01234343
:102CE00010221A600323AB6470BD80221204D6E761
:102CF0000080034000E0004000F0004000C00040C1
:102D00000103000000BEFDE710B5FFF7FBFF000068
:102D100010B582B00C001900002A0CD0084B002A14
:102D20000BD00192009323000200064802F0D8FB6A
:102D30000120FFF7E7FF044BF1E7034AF1E7C04644
:102D400030E9001040E900103CE9001070B52B4B51
:102D50002B4A1A602B4B2C4A1A602C4B9A682A4B30
:102D60009343FAD12A4C01E008CC9847294B9C4266
:102D7000FAD300F001F9234B274A1A60234B9B68D2
:102D8000DB43DB01FAD1254B40229A675A671A6769
:102D9000DA66234C09E0234B234A83212348FFF7BB
:102DA000B7FF2000FFF710FF0834214B9C4209D2E7
:102DB0002368002BF5D0012BEDD12000FFF711FF88
:102DC0000834F2E71B4CA1681B4DC022280002F01A
:102DD00043FAA560FDF747FA002800D000BEFEF7D1
:102DE00041FEFFF757F8FFF789FB144C01E008CCD0
:102DF0009847134B9C42FAD370BDC04600E0004098
:102E0000BFCDFBFE00F00040FE7F3C0000C0004054
:102E10006C0400207C040020FFFFFF0100F0014053
:102E20006404002070E90010ECE9001090E9001043
:102E30006C04002000ED00E0000000207C04002075
:102E4000880400200FB400B583B0084802F016FBD8
:102E5000049B002B07D005A90191180002F01EFB6E
:102E6000034802F00BFB0120FFF74CFFD8E90010EC
:102E7000E8E90010F8B5DE4657464E464546E0B54F
:102E800005000F0092460A9A93424ED31A0E9146BD
:102E90001E020A9A00233000494601F0EDFA8046EE
:102EA0006C006419A4002F4B9C4664446368834201
:102EB00000D260602B1FDBB29B46012B3BD9C023A5
:102EC0009B012343802212011A60AB00264A9958C5
:102ED000002905D0506901F08DFA01300138FDD18B
:102EE00053465A0123685A40E0231A4080235B016D
:102EF00023431A605A46012A28D980239B01234381
:102F0000802212011A60434663604246002330006B
:102F1000494601F0B1FAAD00134B58510120F0BC05
:102F2000BB46B246A946A046F8BD104B104A2D211B
:102F30001048FFF7EDFE012FC1D1C0239B012343B1
:102F400003221A60A368DB07FCD5C9E72168794032
:102F500003220A401A60A2680123BB401342FAD040
:102F6000CBE7C0460080004014120020FCE90010AE
:102F700058EA001010EA001030B583B00C2000F0C1
:102F800021F9FEF765FD00280DD0002304E099002B
:102F90002D4A2E4888500133092BF8D92A4B2C4A48
:102FA0005A6203B030BD2B4B00229A6700F012F931
:102FB000294B01221A60274B5B6C012BFBD1274B5D
:102FC00003221A60234B9B6B012BFBD1013300932F
:102FD0000433234A0121234800F054F805230093C9
:102FE000214A0121214800F04DF8214B0093002295
:102FF00002210420FFF73EFF1E4D00952B0000220A
:1030000001210520FFF736FF104C00942300002219
:1030100000210720FFF72EFF00942300002200214B
:103020000820FFF727FF0A4B00932300002200210E
:103030000920FFF71FFF00952B000022002106202A
:10304000FFF718FFADE7C04614120020006CDC0249
:103050001BB70000008000403CB0004030B0004092
:10306000002F685900800240008C864700C0024053
:10307000001BB700405973078000014BC0587047D0
:1030800014120020F0B5C64600B504000F009046AB
:103090001D000C2001F0AEF906003D4A42443D4BB4
:1030A0009A4243D843011B1A9901C91AC900091849
:1030B0008901404601F09EF90200103A98235B0016
:1030C0009A4239D86B1E062B3CD8069B013B062B37
:1030D00038D8069B9D423BD343461A09B2423DD3A2
:1030E0002D04069B1E0335432368002B3CDB2A4B33
:1030F0009C424AD080225201284B1A60284B1A6009
:10310000284B9B6811009943FAD12760A060231DCA
:10311000C02292011A43212313602368002BFCDA9A
:10312000E5600823136080BCB846F0BD1E4B1F4A03
:1031300011211F48FFF7ECFD1E4B1C4A19211C48AA
:10314000FFF7E6FD1C4B194A1C211948FFF7E0FD6B
:103150001A4B164A22211648FFF7DAFD184B134A7C
:1031600025211348FFF7D4FD22683F231340BB42BB
:10317000BDD1A3681B051B0D8342B8D1E368EE22C5
:10318000D2021340AB42B2D1CDE780229201B3E725
:1031900080E84BD380F8A93200C0024000E0004034
:1031A00000F0004000C0004068EA0010A8EB0010EA
:1031B000C8EA00100CEB001028EB001074EB0010B4
:1031C0008CEB001080239B000343014AD3627047BD
:1031D00000800540064BAA2212011A602F22DA60F5
:1031E000044B054A1A60024B5B68002BFBDA704700
:1031F000004002400060024000B0FA00704710B585
:10320000002802D00B684968984710BD01000020D3
:1032100007E083001B185B00501C08601078C01882
:1032200030380A681378303BDBB2092BF1D970478C
:10323000F0B5DE4657464E464546E0B583B0934668
:103240001F000C9B9A460D9C0E9B99460F9B9B075B
:1032500003D0B8460F00060022E00192A34688463C
:103260004E46B9460700B44207D2551C4B4641466C
:103270002020B84701342A00F5E73D004F465C4660
:10328000019B9B46B1464646B84637002E0007E0F4
:10329000013C551C5346185D43463900B0472A008F
:1032A000002CF5D135003E0047460F9B9B0707D405
:1032B000100003B0F0BCBB46B246A946A046F0BD24
:1032C000B0464E46B9462F005D46531BB342EFD27F
:1032D000541C4B4641462020B8472200F5E7F0B584
:1032E000CE46474680B585B0944698460C9D0D9CC9
:1032F0000EAB1B789946109A119B129EB7071CD4EF
:10330000002B0CD0F7070AD54F46002F02D10C37FF
:10331000374204D0013B02E030272F55013494425C
:1033200001D21F2CF8D9F70707D59C4205D21F2CD4
:1033300003D830272F550134F5E7F70615D5770563
:1033400005D4002C03D0944224D09C4222D00F9A62
:10335000102A2BD00F9A102A30D00F9A022A35D07B
:103360001F2C02D830222A5501341F2C05D84A467A
:10337000002A31D02D222A5501340396029301945C
:10338000009543466246FFF753FF05B0C0BCB946FF
:10339000B046F0BD621E012C06D00F9F102F01D049
:1033A0001400D4E7023CD2E71400D0E7B206D1D42F
:1033B0001F2CCFD878222A550134D1E7B206CCD5BC
:1033C0001F2CCAD858222A550134C9E71F2CC7D848
:1033D00060322A550134C3E7720703D52B222A55E0
:1033E0000134CAE73207C8D520222A550134C4E780
:1033F000F0B5DE4657464E464546E0B593B08146A9
:103400008A46089209931CAB10CB1B789B461E9DE5
:10341000219B9846002C03D1102342469A439046A4
:103420008023DB0046461E4042461A4212D0002C42
:1034300022D000260EE03033D9B2771C0AAB995562
:103440002900200000F0D6FFAC4216D31F2F14D85D
:103450003E0004002900200000F0CCFFCBB2092B75
:10346000E9D94246920605D54121C918C9B20A399F
:10347000C9B2E2E76121F8E7270043460693209BA3
:1034800005931F9B049303955B46029301970AAB38
:103490000093099B089A51464846FFF720FF13B056
:1034A000F0BCBB46B246A946A046F0BDF0B5DE462C
:1034B00057464E464546E0B595B0089009910A92A8
:1034C0000B931E9E1F9C20AB1B789B46229B99460C
:1034D000239D269B9A463300234303D11033524643
:1034E0009A4392468023DB0057461F4052461A42B9
:1034F00019D0330023432DD0002714E03033DAB243
:103500007B1C98460CABDA554A462B003000210054
:1035100000F0B2FFA5421FD819D043461F2B1BD87D
:10352000474606000C004A462B003000210000F000
:10353000A3FFD3B2092BE1D95246920605D5412209
:10354000D218D2B20A3AD2B2DAE76122F8E7B1452C
:10355000E3D901E00023984653460693259B059343
:10356000249B04934B4603935B460293434601938B
:103570000CAB00930B9B0A9A09990898FFF7AFFED2
:1035800015B0F0BCBB46B246A946A046F0BD00004F
:10359000F0B5DE4657464E464546E0B591B0834607
:1035A0008A460C9298461A9C08941B9D0995220005
:1035B0002B002000290001F0EEF9002800D0E5E002
:1035C00001225242D74B2000290001F0DFF90028E8
:1035D00000D0DBE001225242D34B2000290001F051
:1035E000BFF9002800D0D1E000220023089E30005F
:1035F000099D290001F0B4F9002800D0DDE0089809
:103600000999069007918023DB001E9A1A400D92BB
:103610001E9A1A4201D106231C93069807990400AA
:103620000D000A000600024300D1D1E0080D40055C
:10363000400DBE4CA44660440A03120BBC4B13431E
:103640001F0001F0BBF9BB4ABB4B01F046F9BB4A76
:10365000BB4B01F01BF904000D000022B94B3000F8
:10366000390001F00AF9B84AB84B01F036F9020006
:103670000B002000290001F009F901F0B7F981469B
:1036800001F09CF904000D00B14AB24B01F025F99C
:103690000022B14B01F0FAF801F0A8F90600AF4A98
:1036A000AF4B2000290001F018F904000D00300094
:1036B00001F084F9AB4AAC4B01F00FF902000B00AA
:1036C0002000290001F0D9F804000D0002000B00D1
:1036D00001F003F90A900B91A44BF31800261F0583
:1036E00022002B002000290001F0D0F80E900F914D
:1036F00022002B0000208021C90501F0BEF8040043
:103700000D0000229A4B0A980B9901F0C8F800228C
:10371000984B01F0BBF802000B000A980B9901F0DE
:10372000BEF80022944B01F0B1F802000B000A9899
:103730000B9901F0B4F802000B002000290001F001
:10374000A5F802000B000E980F9901F0A8F80022CE
:10375000774B01F09BF832003B0001F0BEF8060009
:103760000F0004000D00069A079B01F00FF90028D6
:1037700030D001235B429C46E14400227D4B300067
:10378000390001F08CF804000D0023E01E9B049327
:103790001D9B03931C9B0293089A099B0092019323
:1037A00043460C9A5146584600F0FCF811B0F0BC64
:1037B000BB46B246A946A046F0BD002300240693AE
:1037C0000794069680231B069C46654407951AE7D6
:1037D000002399464B466333C62B1ED804261E9BF6
:1037E0001B0526D52B0023430FD0644A644B069853
:1037F000079901F0C3F8002879D00022614B0698A0
:10380000079901F0ADF8002871D01C9B4B4506DDEF
:103810004A46981A431E1C9303E00526DFE700235F
:103820001C938023DB001E9A1A431E92002600235D
:1038300099461D9B9E4264D29F1B02231E9A1A40EA
:103840000A921E9A134202D0002E00D000274B4647
:10385000002B07D022002B000698079901F01FF8D3
:1038600006900791002200230898099901F078F842
:10387000002848D1444B1E9A1340049303971C9B85
:103880000293069B079C0093019443460C9A514671
:10389000584600F087F8002E00D187E71E9B9B0654
:1038A0003DD54525441C4346020051462800D847D3
:1038B0004B46DA179B18534005220592013E0496A9
:1038C000002203920A3202924A46D00F01900093DE
:1038D0004346220051465846FFF78AFD0A9B002BBB
:1038E00000D163E702005F460C9E1D9D54E01C9BC7
:1038F000002B9ED00D9B002B9BD01C9B013B1C934F
:1039000097E7002799E7069C079D22002900802061
:103910000006844661440B0006920793AAE76525DA
:10392000C0E7C046FFFFEF7FFFFFEFFF01FCFFFF97
:103930000000F03FFB799F501344D33FB3C8608B26
:10394000288AC63F0000F83F61436F63A787D23FD4
:1039500071A379094F930A400000E03F1655B5BBAB
:10396000B16B0240EF39FAFE422EE63FFF03000042
:1039700000002C4000002440000018402D431CEBA8
:10398000E2361A3F80842E41FFF7FFFF541C434666
:1039900051462020B8472200931BAB42F6D31000BB
:1039A00004E7C046F0B5DE4657464E464546E0B50C
:1039B00095B00690079193469946209F1E9A1F9BAB
:1039C0001000190000F0E7FF002831D10122524217
:1039D000BF4B1E981F9900F0C3FF002837D101226A
:1039E0005242BC4B1E981F9900F0D0FF00283DD1D9
:1039F0000022B94B1E981F9900F0C8FF002850D133
:103A00000022B64B1E981F9900F0AAFF002848D14B
:103A1000002200231E981F9900F0A2FF002850D119
:103A200000239846229B5B0500D4B6E0002458E0B2
:103A3000229B0393219B029303230193A84B0093A2
:103A40004B465A4607990698FFF7F2FB0EE1229B78
:103A50000393219B029304230193A24B00934B46B3
:103A60005A4607990698FFF7E3FBFFE00423229AE2
:103A70001A4022990B4210D09B4B002A0FD00422EF
:103A80002299039121990291019200934B465A4643
:103A900007990698FFF7CCFBE8E0944BEDE703228B
:103AA000EEE7229B0493219B039302971E9B1F9C8E
:103AB000009301944B465A4607990698FFF768FD14
:103AC000D4E01E9A1F9B0020002100F0D6FE1E901D
:103AD0001F9101239846A5E70CAB30221A55013FF0
:103AE00001341F2C01D8092FF6D81E981F9900F019
:103AF0007DFF050000F062FF02000B001E981F9979
:103B000000F0BBFEFA007A4B9B181A685B680A92B9
:103B10000B9300F0E2FE0890099100F08BFF060085
:103B200000F048FF02000B000898099900F0A5FE7C
:103B30000890099100226F4B00F028FF00282ED03A
:103B40000136300000F036FF02000B000A980B9996
:103B500000F00CFF002801D001350026002F2CD1E9
:103B6000280000F02BFF02000B001E981F9900F0A8
:103B700084FE06000F0000225E4B00F0F1FE0028DC
:103B800046D100225B4B3000390000F0FFFE0028D8
:103B90003ED1EB073CD501353AE0062746E7002247
:103BA000544B0898099900F0DBFE0028D6D1002E6E
:103BB00001D0F307D2D50136D0E7AA461F2C11D881
:103BC000013F0A21300000F015FC651C30310CABC0
:103BD00019550A21300000F00DFC092E0ED90600FF
:103BE0002C00EBE755461F2C0CD87B1E002F09D06C
:103BF0000CAA302111551F000134F4E72B00554663
:103C00001C00F0E71F2C03D80CAB2E221A550134F0
:103C10001F2C10D80A21280000F0C4FB661C30318C
:103C20000CAB19550A21280000F0BCFB051E01D081
:103C30003400EDE734000323229A1340012B1CD0FB
:103C40001F2C06D84346002B32D00CAB2D221A5520
:103C50000134229B0393219B029301940CAB0093AC
:103C60004B465A4607990698FFF7E2FA15B0F0BCA2
:103C7000BB46B246A946A046F0BD219B002B13D0FF
:103C80004346002B02D10C3313420FD0219B013B42
:103C90002193190003E00CAB30221A5501348C42F9
:103CA000CED21F2CF7D9CBE72199F8E72199F6E777
:103CB000229B5B0704D50CAB2B221A550134C8E7B5
:103CC000229B1B07C5D50CAB20221A550134C0E737
:103CD000FFFFEFFFFFFFEF7F65CDCD4165CDCDC18C
:103CE000C0EB0010C4EB0010B8EB0010B4EB0010F8
:103CF000B0ED00100000E03FF0B5DE4657464E46FE
:103D00004546E0B593B082468B4690461193002914
:103D100000D1EBE200275546119B1878002800D10E
:103D2000E7E2252809D07C1C43463A005946A847BB
:103D3000119B013311932700EEE701331193002407
:103D4000119A11780B00203BD8B2102803D88300B9
:103D5000D048C3589F460B00303BDBB2092B2CD90F
:103D60002A292FD000230A93119B1A782E2A39D0A2
:103D700000239A46119A1378683BD9B2122976D853
:103D80008B00C549CB589F4601231C430132119239
:103D9000D6E702231C4301321192D1E704231C43CE
:103DA00001321192CCE708231C4301321192C7E77C
:103DB00010231C4301321192C2E711A8FFF726FA23
:103DC0000A90D1E71C9B1A1D1C921868002804DB7E
:103DD0000A90119B01331193C6E702231C4343420F
:103DE0000A93F6E78022D20014435A1C11925A78A3
:103DF0001300303BDBB2092B04D92A2A07D0002359
:103E00009A46B7E711A8FFF701FA8246B2E71C9B72
:103E10001A1D1C921868002804DB8246119B01338E
:103E20001193A7E70020F8E780235B002343511C90
:103E3000119152786C2A01D01C0018E0C0239B001D
:103E40001C430131119112E080232343511C119135
:103E50005278682A01D01C0009E0C0231C430131BC
:103E6000119104E080235B001C4301321192119BED
:103E700018780300253BDAB2532A00D92CE29300CC
:103E8000864AD3589F4680239B001C4301321192DF
:103E9000EDE780235B001C4301321192E7E77828AD
:103EA00009D0582838D06F2838D0622838D010234D
:103EB0009C430A2600E01026582833D0692803D0F6
:103EC000642801D00C229443630501D50122944358
:103ED00069282AD0642828D0A30500D59FE0E305EF
:103EE00000D5B8E0630600D4CAE01C9A111D1C91ED
:103EF0001168FF220A4005940A9B049353460393DA
:103F0000029600230193009243463A005946280046
:103F1000FFF76EFA070027E01026CDE70826CBE76B
:103F20000226C9E720221443C8E7A30520D4E305ED
:103F300050D4630666D51C9A111D1C911168FF228E
:103F40000A40D317D118594005940A9B049353464D
:103F500003930296D20F0192009143463A005946CC
:103F60002800FFF745FA0700119B01331193D3E6B0
:103F70001C9BDA1D07218A43110008311C9111682E
:103F800053689C46DB170C930D930C9A0D9B100005
:103F900048400E90624653400F930E980F990C9A2A
:103FA0000D9B801A99410E900F9108940A9B0793DC
:103FB000534606930496002305936346DA0F029254
:103FC0000090019143463A0059462800FFF76EFAE7
:103FD0000700C9E71C9A111D1C911268D317D1184C
:103FE000594005940A9B0493534603930296D20FBB
:103FF0000192009143463A0059462800FFF7F8F92C
:104000000700B1E7230605D51C9A111D1C9100235A
:10401000D25E96E71C9A111D1C91126891E71C9BB9
:10402000DA1D07218A43110008311C9108940A9B6C
:10403000079353460693049600230593029313684F
:1040400054680093019443463A0059462800FFF70C
:104050002DFA070088E71C9A111D1C9105940A9BF4
:10406000049353460393029600230193136800932D
:1040700043463A0059462800FFF7BAF9070073E7AC
:1040800023060DD51C9A111D1C9112681204120CE6
:1040900031E7C046CCEB001010EC00105CEC0010D7
:1040A0001C9A111D1C91126825E746281AD01C9BEA
:1040B0000733072293431A0008321C9204940A9A89
:1040C0000392524602925C681B6800930194434637
:1040D0003A0059462800FFF765FC0700119B0133A1
:1040E000119319E620231C43E1E7672801D04728F4
:1040F00002D180231B011C43452801D0472801D150
:1041000020231C431C9B0733072293431A000832C9
:104110001C9204940A9A0392524602925C681B68AD
:104120000093019443463A0059462800FFF730FABD
:104130000700119B01331193EEE502231A00224080
:10414000924623421FD001241C9B1A1D1C927A1CEC
:104150009146187843463A005946A8475346002BE3
:1041600016D1119B013311934F46D5E5561C43469A
:1041700059462020B847230032005C1C9D42F5D8E8
:104180003D001700E0E701233A002F000A9DF4E705
:104190004A46A9460A9D06E0571C43465946202038
:1041A000C84734003A00661CA542F5D84D469146F2
:1041B000D7E71C9B1A1D1C921B6899465346002B7F
:1041C00000D1013B4E4601E0013613003278002A4F
:1041D00002D05A1E002BF7D14B46F21A10928023C0
:1041E000DB0026001E401C4203D0524501D9534635
:1041F000109302231A0022400B92234205D03A006A
:1042000037004C46A946554620E03A00109B5F46D1
:10421000B3462E0006E0551C434639002020B04727
:1042200023002A005C1C0A999942F4D835005E46A6
:10423000BB46109437004C46A946554606E01D0083
:104240000134561C43465946C8473200207800289E
:1042500004D0002FF4D06B1E002DF0D117004D4676
:104260000B9B002B03D1119B0133119354E50A9F43
:10427000109B06E0561C434659462020A8472300C1
:1042800032005C1C9F42F5D81700ECE721231C4349
:104290001C9B1A1D1C921B68009305940823049311
:1042A00053460393102302930023019343463A009D
:1042B00059462800FFF79CF80700119B0133119322
:1042C0002AE57C1C43463A0059462520A847119B05
:1042D0000133119327001FE57C1C43463A005946E1
:1042E000A847119B01331193270015E50A4B9A4605
:1042F00010E5AA46474502D343465A1E00E03A005D
:10430000434659460020D047380013B0F0BCBB46A6
:10431000B246A946A046F0BDFD31001000B585B0FB
:10432000029003910121009313004A4202A902481E
:10433000FFF7E2FC05B000BDFF3100100148042189
:10434000014B1847300400206D43001010B50100E8
:1043500018231B8814221088984710BD10B501003F
:1043600018231B8816221088984710BDF0B5C64642
:1043700000B507000E0000250123984600E0013536
:10438000B5420AD2AC003C192068FFF7DFFF20607D
:104390000028F4D100239846F1E7404680BCB84697
:1043A000F0BD0000124A936F9B0815D29066D1664B
:1043B000002905D0FFE7FFE7FFE7516F106F704757
:1043C00004B580210906C2175140002800D0C84317
:1043D00001F022FA002104BDF0B5146E556E576F3E
:1043E000166FFFF7E3FF1466556657671667F0BD53
:1043F000000000D0114A936F9B0813D210665166DB
:10440000002905D0FFE7FFE7FFE7516F106F704706
:1044100004B5002801D00020C04301F0FDF90021BF
:1044200004BDC046F0B5146E556E576F166FFFF79A
:10443000E5FF1466556657671667F0BD000000D0AB
:1044400094464E4A926F9208624601D230E0C046CE
:10445000F0B54A4EB56F6D08FCD3346E756E776F4C
:10446000366F00F025F89446444A1466556657673F
:1044700016676246F0BDC0469446404A926F920865
:10448000624601D258E0C046F0B53C4EB56F6D08AB
:10449000FCD3346E756E776F366F00F04DF894462E
:1044A000364A14665566576716676246F0BDC046C1
:1044B000002B24DB11D000293EDA00B5C94340426D
:1044C00000D1013100F038F8C943404200D1013138
:1044D000DB43524200D1013300BD002AEBD100285A
:1044E00001D1002905D00020C90FC90701D1C0435F
:1044F000410800B501F088F90022002300BD00B595
:1045000000290ADBDB43524200D1013300F014F8EA
:10451000C943404200D1013100BDC943404200D1EE
:104520000131DB43524200D1013300F005F8DB4397
:10453000524200D1013300BD002923D1002B18D1F4
:10454000002A0CD0BC460D4F38667A660021002345
:10455000FFE7FFE7FFE77A6F386F6746704700288D
:1045600001D00748010000B501F04EF900220023F8
:1045700000BD02000B00002000217047000000D0A9
:10458000FFFFFFFF002B00D0BFE0130C28D1002A53
:10459000E7D080B4114F39667A66FFE7FFE730B4A1
:1045A000040C7B6F396F1B0423433B667A66FFE77D
:1045B000FFE7FFE7C04684B27B6F3D6F1B042343D8
:1045C0003B667A66FFE7FFE7C04600232C042D0C0C
:1045D0007A6F386F00196941B0BC7047000000D095
:1045E000F0B594460025140E01D112020835140FBF
:1045F00001D112010435940F01D192000235D40F7C
:1046000001D152000135D40B0134254F7C66254C75
:104610003C660E0C93B2FFE7FFE7FFE73C6F664393
:10462000360C7703BE467343DF0B5B04C01AB941F7
:10463000130C7343DB18C91ACE086643360CB64414
:1046400093B273431F0F1B01C01AB941130C73437C
:104650001F0B1B05C01AB941860D8F023E436643EE
:10466000360C092D24DB520A7243801A7703460A5E
:104670006643360C16235B1BDE40DF40BF196446E1
:104680006643821B7046043506330100D940A840BA
:10469000C01900D30131A24206D20023F0BD0000B0
:1046A000000000D0FFFFFFFF121B0130F3D3F1E742
:1046B00009277F1BFE406446A2B27243801A00D2D3
:1046C0000139220C7243130C1204821A99410B0017
:1046D0007046043513370100F940A840801900D313
:1046E0000131002B02D1A2420AD2F0BD013000D329
:1046F0000131121BFAD2013BF8D1A24200D2F0BD27
:10470000013000D30131121BF7E7F0B51C0C00D0CB
:1047100080E00CB400251C0A04D11B02160E3343A2
:10472000120208351C0B04D11B01160F3343120172
:1047300004359C0B04D19B00960F33439200023545
:10474000DC0B02D192185B4101351C0097186441C3
:104750000134464F7C66464C3C660E0CFFE7FFE793
:10476000FFE7C0463C6F6643360C7703BE4697B200
:104770007743C01B00D20139C01B00D201399FB260
:104780007743C91BC91B170C77437E04FF0B801BA3
:10479000B941CE086643360C0C2D33DBB644120B00
:1047A0001F053A431B0B97B27743C01B00D2013958
:1047B0009FB27743C91B170C77433E043F0C801B05
:1047C000B941860D8F023E43664329277F1BFE4079
:1047D0000C3D7746AF40BF1930BCA2B2ABB27243BA
:1047E0007343801A9941220C7243130C1204801AED
:1047F000994102000B000137001BA941F9D2781E34
:104800000021F0BD0C277F1BFE4077467F0BAF4099
:10481000FF19E0E700245D1C07D0144F7D66396660
:10482000FFE7FFE7FFE7FFE73C6F95B29EB2654306
:104830006643401BB141150C1E0C654366433604AC
:104840002F0C3E432D04401BB141994204D202007B
:104850000B0020000021F0BD01D19042F7D3801A57
:10486000994101349942F2D3F6E70000000000D0EC
:10487000FFFFFFFF48404140484018B41B4B5B68B6
:10488000FC46019308BD04DF4F4B001018B4174BD2
:104890001B68FC46019308BD00DF594B001094468D
:1048A000134A926F920809D2624618B40F4BDB6824
:1048B000FC46019308BD0CDF114E00100C4AF0B508
:1048C000146E556E576F166F6246FFF7EEFF084A7B
:1048D0001466556657671667F0BD18B4034B9B689E
:1048E000FC46019308BD08DFB54C0010C014002041
:1048F000000000D0FFB550404240504059404B406E
:10490000594000E0FFB5154F4C00640D03D0BC4288
:1049100004D10C0314D80020090D09055C00640DB6
:1049200003D0BC4204D11C030AD800221B0D1B0576
:1049300001264B4009D44B4003D58B4200D1824223
:10494000FFBD9942FCD19042FFBD0B43DB180343EE
:104950001343F5D0C9434918FFBD0000FF0700000D
:1049600000B5FFF7CFFF804100BDC04600B5FFF79F
:10497000C9FF01D9002000BD012000BD00B5FFF72F
:10498000B9FF01D9002000BD012000BD00B5FFF72F
:10499000B1FF804100BD012040054A00121804D833
:1049A0005A00121801D800207047012070470020DB
:1049B000704700000021002805D17047C11748400A
:1049C000401AFAD0C90713B5064B1B6898470CBCB0
:1049D000441CA2401005120B0349091B0905194389
:1049E000114310BDC01500201F04000010B54C007D
:1049F000620D8023D218DB00D21A5B057E2A10DDFF
:104A00009E3A13DACC170903490819435242D140A0
:104A1000640001341532202A05DAD040084360438F
:104A200010BD002010BD0846604310BDC80FC0185F
:104A3000013810BD18B4044B5B6AFC46019308BDF5
:104A400024DFC14F00100000C014002070B51323F4
:104A50001C78012C14D0012C14DC022C02DC1F4A1F
:104A60001F4B9A641F48FFF771FC1F4B186070BD05
:104A700099001A481A4A885001331F2BF8D9EAE7DF
:104A80000023FAE71948FFF769FC05001848FFF70B
:104A900065FC023803789B007F2B19DD80222900FA
:104AA0000F4800F0D9FB022CD7D1124B1A88B5233E
:104AB0001B029A4209D1104B1A88104B9A4204D11A
:104AC0000F4B1A880F4B9A42C7D00020FEF7BAF955
:104AD0000D4B0E4A32210E48FEF71AF9154B001005
:104AE000C01400204C330000C015002053440000C7
:104AF0005346000054380000D838000049460000F2
:104B00009C3800005946000000EE0010B0EE001086
:104B100060EE001007B56046002800D100BE018895
:104B20000A0A0230DF2AFAD1C9B2820804D3028805
:104B300040880004104300E00068024A505003908F
:104B400007BD0000C01400200FB403BC0CBCF0B5BE
:104B50000124E407634000E0F0B50C0DCF0F661EA2
:104B60003605891B640503D3C943404200D3013194
:104B7000640D03D0661CF60A07D0E41B00207F00FA
:104B8000791C89078912803C24031D0DDF0F6E1EDE
:104B900036059B1B6D0503D3DB43524200D3013323
:104BA0006D0D03D06E1CF60A07D0ED1B00227F00AE
:104BB0007B1C9B079B12803D2D032F1B661B58D42B
:104BC000A446202E46DA20371400BC401D00BD400C
:104BD000F24033412A4380185941CB0F05D0C943D5
:104BE000C043002264425041514162464D0D28D1DC
:104BF0000D0D07D100281FD0241940414941013A29
:104C00000D0DF9D0640006D3013000D30131002C22
:104C100001D140084000013A0BD4941CE40A04D1AD
:104C200012051144DB071944F0BDD907204B194385
:104C300000E0D9070020F0BD0029DDD1002CDBD138
:104C4000F0BD0132C6074008CD0728434908002EB1
:104C5000E1D0D9E73C2E29DA203E40371400BC4091
:104C600000D00124F24014431A00BB401C43D31768
:104C7000ACE7AC46202F08DA20360400B4400D0023
:104C8000B540F84039412843A5E73C2F0CDA203FD6
:104C900040360400B44000D00124F840044308002A
:104CA000B1400C43C117EAE710001900002494E753
:104CB0000000F07FF0B50C0D661E3605891BE60A74
:104CC0006405640D02D0651CED0A04D000200121AA
:104CD0000905803C2403A4461C0D671E3F05DB1B11
:104CE000E70A6405640D02D0651CED0A04D00022B9
:104CF00001231B05803C24037740644497B484B2AD
:104D000096B27443070C7E43150C6F4380B2684320
:104D1000361802D3012000043F183004350C001966
:104D20007D41844688B29AB250430C0C62431F0CFA
:104D30007C438EB27E43921902D301263604A41915
:104D40001604170C3618674101BC81B29AB2514360
:104D5000040C62431B0C5C4380B25843121802D30C
:104D60000120000424181004130C401863412D186E
:104D70005E410020474106BC88B293B258430C0CF8
:104D80006343120C544389B251435B1802D301218F
:104D90000904641819041A0C091862416D18564167
:104DA0000020474118BCF902720D1143F0026A0D50
:104DB0001043ED020A0D03D16D1940414941013BF9
:104DC000124E9B1B7600B3420ED26D0007D301300A
:104DD000002671416646354301D1400840001B055D
:104DE000C918E4072144F0BD0BDA013306D10130C4
:104DF00004D101314F0D01D04908F2E7E10700204D
:104E0000F0BD013631050020EBE70000FF03000094
:104E1000F0B51C0D671E3F05DB1BE70A6405640D3A
:104E200002D0661CF60A04D0002201231B05803C38
:104E30002403D0252D060026F6432E661E096E6635
:104E4000CE0FF619B44649004F0D02D07E1CF60A6B
:104E500003D000200021403F3F033E1BB600B44476
:104E6000013F7F05C91B49082E6F013676089C0259
:104E7000950D25437543ED137543AD1301356D1045
:104E8000F603761B0CB4CC02450D2C43A2B2B3B290
:104E90005A43270C7B43350C6F43A4B26C431B1958
:104EA00002D3012424043F191C041D0CA4187D41C5
:104EB00024196D41009A91B2ACB26143170C7C4346
:104EC0002B0C5F4392B25A43A41802D3012212045E
:104ED000BF182204230C52187B41019C6C431B1900
:104EE000520ED9010A434401A01A81B2B2B2514311
:104EF00003145A43360C734387B27743D617D2193B
:104F000000277E4136049B191704160C7F185E415A
:104F10007316ED18F301002680337541A90F06D1F1
:104F20006400690AE8055B0A184309D22FE00422ED
:104F3000944480337541A90AA8059B0A184326D3D7
:104F4000404149412404009A019B0D005543641BD4
:104F50004343E41A95B286B27543170C7E43030CA3
:104F60005F4392B25A43B61802D301221204BF180B
:104F70003204330C52197B4152429C41002C02D422
:104F80000022013051414008CA071043490802B0CD
:104F90006246D7079210084BD218084B9A4203D2A8
:104FA00012058918C919F0BD0020002A01DC39005A
:104FB000F0BD01331905F5E7FD030000FE07000011
:104FC000002200B5203200F004F8080000BD000007
:104FD00000220B150AD410B5944600F031F81414D1
:104FE000013400DA0021CB17144C204700200021A7
:104FF00070476244343A0CD40C2A07DA040091401A
:10500000904052422032D440214310BDD843D9436E
:1050100010BD203207D40C46944052422032114138
:10502000D040204310BD0800C917203203D452429B
:105030002032104110BD1800190010BDF34F0010B0
:105040000A0DCC0F531E1B05C91A520503D3C943C1
:10505000404200D30131520D03D0531CDB0A07D06C
:10506000121B00206400611C89078912803A120318
:10507000014BD21A70470000FF0300005143434325
:10508000C9188C46110C83B24B4310B4040C614315
:1050900092B280B2504362431C041B0C001910BC36
:1050A00059411304120CC018514161447047491A08
:1050B000002807D108467047C10FC90700D54042F4
:1050C000002817D0F44603B40B4B1B68984706BC66
:1050D00081409E384042803107D20B0607D04900FC
:1050E000490AC0051043084360470130F8E7490A00
:1050F0008902F5E770470000C015002000239C4698
:10510000014B5B6A18470000C415002070B51323DB
:105110001D782A48FFF722F90400012D11D0012D36
:1051200009DDA31E1B789B007F2B40DD8022210020
:10513000234800F091F82348FFF708F9224B186044
:1051400070BD542201001E4800F086F81F4B1A88DB
:105150001F4B9A421CD1A7239B011A881D4B9A42D0
:1051600016D11D4B1A881D4B9A4211D11C4B1A881F
:1051700094239B019A420BD11A4B1A881A4B9A42DC
:1051800006D11A4B1A681A4B9A4201D1152307E02F
:105190001848FDF757FE99001748094A885001330F
:1051A0001F2BF8D9144A064B1A62DA61B7E7134B82
:1051B000134A42211348FDF7ABFDC0465346000099
:1051C000C41500204C330000C0150020EE2900005B
:1051D000C40F0000C20D0000962B0000C0B50000F7
:1051E000182B0000CC2A000010B50000FC2C000099
:1051F00051ED87643CE9001009520010C4EE001024
:1052000044EF0010F8EE001007B56046002800D10A
:1052100000BE01880A0A0230DF2AFAD1C9B2820828
:1052200004D3028840880004104300E00068024A6A
:105230005050039007BD0000C41500200148042110
:10524000014B1847400400206D430010014B1B68C0
:105250001847000040040020014B5B68184700001D
:105260004004002010B50300080011001B68984797
:1052700010BD0000F8B507000D001600437C002BA0
:1052800002D0002400200CE0036811002800984799
:105290002DE03B7C10E0022115483B689847601CDC
:1052A0000134B44214DA002CF3DD2B19013B1B78D6
:1052B0000D3B5A425341DBB22A5D0A2AF0D1002B42
:1052C000EED1A042E7DA211A28183B689847E2E7B6
:1052D000B04203DA311A28183B689847002E06DDE1
:1052E000AD19013D2B780D3B5A4253413B74F8BD3B
:1052F000CCEF001070B505000368002B16D00C4BE6
:105300001C6805E0290004C92000FFF7B3FFE4682A
:10531000002C09D02368002BF9D0064B1B68002B0A
:10532000F0D0A342F3D1EDE700232B6070BDC0465F
:105330007C1200208012002070B505000C000B6864
:10534000802B05D021684B1C23606418257170BD2B
:105350000800FFF7CFFFF5E710B582B0D0231B069A
:1053600000241C5701A9074800F05EFA002806D166
:10537000019B9C4203D0034800F05EFA012002B07A
:1053800010BDC0466404002010B5024800F034FA95
:1053900010BDC04664040020F0B5CE46474680B537
:1053A00083B006000D0090461C00FFF7D5FF814634
:1053B0006B1C05D0002C08D0194F1A4B1C6807E055
:1053C000300000F0E9F90500F4E7174FF5E7E4686D
:1053D000002C17D02368002BF9D0144B1B68002B2E
:1053E00001D0A342F3D12A0031002000B847434640
:1053F000002BECD06B46D91D0A230B700122200034
:10540000B847E4E74B46002B07D16B1E9D41E8B23D
:1054100003B0C0BCB946B046F0BDFFF7B5FFF4E736
:10542000655200107C12002075520010801200207E
:10543000094A01E00C331A001368002B08D083429C
:10544000F8D1002907D1C36813600023C36002E0CC
:10545000002900D0106070477C12002010B5064B68
:105460001C6801E09847E468002C03D06368002BB7
:10547000F8D1F8E710BDC0467C12002070B50500D9
:1054800000F08AF904000023012201002800FFF740
:1054900083FFFFF7E3FF200070BD000070B5A2B0EE
:1054A00004000E00FFF758FF05008422002101A828
:1054B000FFF7CCFE3300220001A90848FEF72EFFBB
:1054C000040001A8FFF716FFFFF7C8FF002D02D167
:1054D000200022B070BDFFF757FFF9E739530010E5
:1054E0000FB400B583B004A901C90191FFF7D6FF3D
:1054F00003B008BC04B0184710B500F085F810BD23
:10550000F0B583B005000E0000240FE06B46D91DF6
:105510000D230B700020002816D193699B06FCD444
:105520000B78136001300131F5E70134B44219DA28
:105530000D4B1A682F5D0D4BD31859424B415B0040
:105540000B495B5EBB42E1D06B46D91D0F7000205A
:105550000028EAD193699B06FCD40B7813600130D4
:105560000131F5E703B0F0BDDC1600200080FCBF80
:10557000D8160020F0B583B006000F00002004E02C
:105580006B4607331B7823702800B84215DA0E4BA0
:105590001A6893691024210019401C420DD1451C42
:1055A00034186B46D81D0029EAD19369DB06FCD478
:1055B0001368037001310130F5E7002801D003B012
:1055C000F0BD0338FBE7C046DC16002070B51500BF
:1055D0001C000B4B1860FDF755FB002D06DA002C64
:1055E00009DA01210748FFF723FF70BD02212800D7
:1055F000FCF770F9F3E702212000FCF76BF9F0E704
:10560000DC1600205004002010B5064B1B78064B1A
:105610001B78E1210123002249020448FFF7D6FF4D
:1056200010BDC0466CF0001070F000100040034048
:10563000F0B5D646474680B583B0824688460620F8
:10564000FDF71AFD0700022400E02C00FE2C1CD8F8
:1056500001970026A51C2802424600230021FFF7DF
:105660000DFD002903D1B142EFD1B842EDD980251B
:105670006D00012D0CD96E1E210071433800FEF71C
:10568000B9FE404504D83500F3E780256D00F0E70A
:1056900053461C616B1E1B02524612685340FF2288
:1056A000120213408020400152461043036029003B
:1056B00061433800FEF79EFE03B0C0BCBA46B04658
:1056C000F0BD000010B50400144B984222D0802297
:1056D0009202134B1A60134B1A60134B9B68100015
:1056E0009843FAD12000FFF7A3FF22680723534015
:1056F000CF221A4080235B0123431A602200243208
:1057000080239B011A430321116004341C430223AC
:10571000236010BD80225202DBE7C04600C0034078
:1057200000E0004000F0004000C0004000B583B041
:105730000100044B00930B2300220348FCF75FF9A0
:1057400003B000BD10F00010FA16002010B50100E3
:10575000024A0348FCF73AF910BDC04630F0001089
:105760000B1700200123084A1360084A1360084BF6
:105770009A6801239343FAD1064B01221A60054B24
:105780001B68DB05FBD5704700E0004000F00040DF
:1057900000C0004000C0044010B583070AD00300D9
:1057A000032102E001330B4205D01A78002AF9D117
:1057B000181A10BD030019680C4A0D4C8A188A4348
:1057C00022420FD15968094A04338A188A43224277
:1057D00008D15968054A04338A188A432242F1D015
:1057E00000E001331A78002AFBD1E1E7FFFEFEFE5C
:1057F00080808080F8B5C04601B40248844601BC70
:10580000604700BF5101002001B40248844601BC3A
:10581000604700BF9D01002001B40248844601BCDE
:10582000604700BF9D01002001B40248844601BCCE
:10583000604700BF0901002001B40248844601BC52
:08584000604700BFC100002019
:1058480075735F73696E63655F626F6F74203C3D4B
:1058580020494E5436345F4D41580000766F6964D4
:10586800207570646174655F75735F73696E6365D5
:105878005F626F6F74286162736F6C7574655F74B3
:10588800696D655F742A2C2075696E7436345F748F
:10589800290000002F55736572732F6E69636B6161
:1058A8006C6C6F74742F7069636F2F7069636F2DE0
:1058B80073646B2F7372632F636F6D6D6F6E2F70D0
:1058C80069636F5F626173652F696E636C75646588
:1058D8002F7069636F2F74797065732E68000000EC
:1058E8001200AC0293053B08080BBF0D7F1037135D
:1058F800EC159F18501BF91DA0204123DB257228A9
:10590800022B8B2D0C308732FB346237CC391E3C8E
:105918006F3EB740F14224454B476649784B804D6E
:10592800754F665146531555E2569858435AE35BEE
:105938006F5DF35E6360C7611F635F649B65BD66EF
:10594800D367DA68CE69B76A896B506C046DA56D48
:105958003D6EB96E296F8B6FD56F13703F7058709D
:105968005F7059703F701370DA6F896F2A6FBB6E62
:10597800396EA56D046D4E6C8B6BB66ACE69DE68A8
:10598800D367BD66996560641D63C8616360F35E33
:10599800705DE35B435A9958E15618554553625177
:1059A800774F7D4D7A4B67494B472645F042B940C2
:1059B8006F3E203CC8396337FB3486320D308B2D5F
:1059C800012B7328DC254123A020F81D4E1BA118AC
:1059D800EC1537137C10C20D060B43088505C00271
:1059E800000040FD7BFABCF7FAF43EF284EFC7EC06
:1059F80014EA60E7B1E407E261DFBFDC24DA8DD79F
:105A0800FFD475D2F3CF79CD05CB9CC839C6E0C396
:105A180092C14ABF0EBDDBBAB4B89AB685B482B299
:105A28008AB09AAEBDACE8AA21A969A7BAA51FA4F5
:105A38008FA20BA19E9F359EE49C9F9B689A4399D9
:105A48002B9829972D964E957394AD930093569263
:105A5800CA914591D69077902A90ED8FBF8FAA8FE3
:105A68009E8FAB8FC08FEB8F2B907690D8904591FF
:105A7800C8915892FD92B09373944D952E9627979E
:105A88002D9842996B9A9D9BE49C399E989F0FA1F3
:105A98008EA21DA4BDA567A721A9E9AABBAC9DAE8E
:105AA8008AB07FB28AB497B6B4B8DDBA0CBD4CBF21
:105AB80090C1E1C33AC69BC806CB78CDF4CF75D266
:105AC800FFD48DD723DAC0DC60DF08E2B0E460E7FA
